:400000000080002011000000A5000000A500000080B500AF064A064B1B6843F020031360044A054B1B68136000F02CFB00F03EF8E8460040BC760040FA46004010B5054CAD
:40004000237833B9044B13B10448AFF300800123237010BD2881FF1F00000000641B0000084B10B51BB108480849AFF300800848036803B910BD074B002BFBD0BDE8104086
:40008000184700BF00000000641B00002C81FF1F0881FF1F0000000080B500AF00F088FAFEE700BF80B400AFFEE700BF80B586B000AF214B7B61214B3B611F4B7B611F4B96
:4000C0003B612FE03B691B68FB603B695B68BB603B699B683B6000237B600AE0BB681A1DBA60FA68111DF96012681A607B6804337B607A683B689A42F0D13B69DB683B603D
:4001000000237B6007E0BB681A1DBA6000221A607B6804337B607A683B689A42F3D13B6910333B617B695A1E7A61002BCAD101F0DBFCFFF7B1FFFEE701000000741F000049
:4001400080B582B000AF174B174A1A60174A174B1B6843F40073136000237B600FE07B68032B04D8124A7B6852F8233000E0114B11497A6841F822307B6801337B607B683B
:400180002F2BECD90D4B1B78DAB20D4B1A700D4B094A1A6000F026F90B4B00221A600837BD4680BD0CED00E00004FA0514ED00E000000000A50000000080FF1FBC760040B0
:4001C0000481FF1F08ED00E00081FF1F80B582B000AF78603960786800213A6801F0B5FC0837BD4680BD00BF80B584B000AFF860B9607A60F868B9687A6801F09BFC103749
:40020000BD4680BD80B584B000AFF860B9607A60F868B9687A6801F08DFC1037BD4680BD80B483B000AF0346FB71FEE780B487B000AF7860396000233B6100237B6127E0B7
:400240007B699B007A6813441B68BB60BB68FB73BB6823F0FF03BB6014E03B695B003A6813441B781A46BB68134419463B695B003A6813445B780B703B6901333B61FB7B5C
:40028000013BFB73FB7B002BE7D17B6901337B617B690C2BD4D91C37BD465DF8047B704780B582B000AF304B19221A802F4B18221A702F4B02221A704FF0402308221A707C
:4002C0002C4B03221A702C4B2C4A1278D2B21A702B4B08221A802B4B41F251221A800023FB7019237B6014E0FB785B00DAB2264B1B78DBB203F00103DBB21343DBB203F085
:400300000303FB704FF4F07000F0E6FE7B68013B7B607B68002B02D0FB78032BE4D17B68002B02D10320FFF77BFF184B4FF480721A80164B07221A70154B00221A70154B7F
:4003400048221A70114B00221A70134B02221A70124A124B1B78DBB243F00103DBB213700837BD4680BD00BF80400040824000400043004000420040A14600400801004997
:4003800022420040204200402542004004400040064000400840004001400040A243004080B483B000AF0B4B1B78FB710A4AFB7903F00703DBB21370084AFB791B09DBB261
:4003C0001370074B44221A700C37BD465DF8047B704700BFCF0100496E5800406F5800407658004080B582B000AF72B6334A334B1B78DBB243F02403DBB213700023FB7122
:4004000013E0FA7913465B0013445B002C4A13443B603B681A683B689B889BB210461946FFF7D4FEFB790133FB71FB79082BE8D924482549FFF7FAFE244A244B1B78DBB292
:4004400043F00203DBB21370214A214B1B78DBB243F00203DBB213701E4A1E4B1B78DBB243F04003DBB213701B4A1B4B1B78DBB243F01003DBB21370184819490A22FFF759
:40048000C1FE184A174B1B78DBB243F00803DBB21370154B01221A70FFF702FF124B81221A70124B01221A70FFF77AFF104809490E22FFF799FE0837BD4680BDE8460040F0
:4004C000681B0000A01B0000D41B00000350014013500140A0430040C2430040405100403C1F0000224300400048004004000840B043004080B485B000AF78600B467B801B
:400500000023FB810BE07B88013B7A6813441B789AB2FB891344FB817B88013B7B807B88002BF0D1FB895B429BB218461437BD465DF8047B704700BF80B485B000AF786006
:4005400039600023FB7309E03B68013B3B607A683B6813441A78FB7B1344FB733B68002BF2D1FB7B18461437BD465DF8047B704780B485B000AF786039600023FB730DE000
:400580003B68013B3B607A683B68134403F1804303F500431A78FB7B1344FB733B68002BEED1FB7B18461437BD465DF8047B704780B5CAB000AF00F0DDFD0346002B02D07E
:4005C000002000F0A3FE3B46184600F0E5FD0346002B02D0002000F099FE224B1B681B6800201946FFF7A8FF034687F827311E4B1B681B7897F82721D31A87F8273197F854
:4006000027315B4287F82731174B1B681B7897F827219A4204D1134B1B681B68002B02D1002000F073FE002000F04CF8C7F820010E4B1B78DBB203F0C003402B03D0D7F89B
:400640002031002B05D0094B00221A70002000F0B3F8322000F0B0F800F00AF807F59477BD4680BD1081FF1F0C81FF1FFA46004080B500AF024B80221A7000F053FE80BD96
:40068000FA46004080B500AF0C4B1B78DBB203F0C003802B11D1094B00221A700120002100F0A4FB0346002B07D00120002100F09DFB0346184600F003F880BDFA460040E7
:4006C000004700BF90B587B000AF0346FB71FB790220194600F08AFB034601331C02FB790320194600F082FB03462344FB600023FB740023BB74FB790220194600F076FB67
:40070000034601331B027B6111E07B691B78FB72FB7A002B04D0FB7AFF2B01D00123FB74BA7CFB7A1344BB747B6901337B617A69FB689A42E9D3FB790220194600F056FBBE
:40074000034601331B02DB087B61FB68194A934202D0FB68DB0801E04FF40043FB600AE07B6903F190431B78DAB2BB7C1344BB747B6901337B617A69FB689A42F0D3BB7C2A
:400780005B42BB74FA7913461B069B1A1B0203F57F3303F570731B78DBB2BA7C9A4202D1FB7C002B01D1062300E0002318461C37BD4690BDC0FF030080B5ADF56C7D00AF52
:4007C0000246FB1D1A700023A7F8AA330023A7F8A8330A2387F8A733002387F8A633002387F8A53300F0D0FB62B6002387F8AD33FB1D1B78002B02D0FB1D1B7800E0FF23AE
:4008000007F5187107F28E3208464FF4967100F0E9FBC7F89C03FB1D1B78002B04D097F8A733013B87F8A73397F8A733002B03D0D7F89C33002BDBD1D7F89C33002B00D093
:4008400074E2B7F88E33062B04D907F518731B78012B03D0042387F8AD3349E007F51873DB789BB21B029AB207F518739B789BB21343A7F8AA33B7F8AA33053307F5187249
:40088000D35C9BB21B029AB2B7F8AA33043307F51871CB5C9BB21343A7F89A33B7F8AA330733B7F88E23934203D9032387F8AD331EE0B7F8AA33063307F51872D35C172BBF
:4008C00003D0042387F8AD3312E0B7F8AA3304339BB207F5187210461946FFF70BFE03461A46B7F89A33934202D0082387F8AD330023A7F8AE3397F8AD33002B40F00B8213
:4009000007F518731B7987F89933042387F8AD3307F518735B78313B0A2B00F2F88101A252F823F0510900008B0900000F0D0000E5090000310B00000F0D0000430B0000C7
:40094000970B0000E5090000D90B0000F70C000097F8A533012B17D1B7F8AA33002B13D10020FFF7AFFE0346002B0CBF01230023DBB21A4607F518731A710123A7F8AE33FE
:40098000002387F8AD33C6E1C5E197F8A533012B27D1B7F8AA33012B23D197F89933032B1FD80023A7F89633B7F89633DAB207F518731A71B7F896331B0A9BB2DAB207F59E
:4009C00018735A7107F51873FF229A7107F518730322DA710423A7F8AE33002387F8AD3399E198E107F518735B78342B23D197F8A533012B40F08F81B7F8AA33032B40F071
:400A00008A8197F899333F2B08D997F899335BB2002B03DB1023A7F8A83303E04FF49073A7F8A833B7F8A83307F59A72104600211A4601F08AF897F8A533012B77D1B7F8DE
:400A4000AA33022B73D9B7F8A83307F59A72D118B7F8AA33DA1E07F5187307330846194601F068F8B7F8A823B7F8AA3313449BB2033BA7F8A83397F899333F2B0AD997F8C9
:400A800099335BB2002B05DB00F026FC1023A7F8AA3303E04FF49073A7F8AA33B7F8A823B7F8AA339A423BD107F518739B799BB21B029AB207F518735B799BB21343A7F810
:400AC000A83397F899333F2B17D897F8A633002B13D107F10C03184600214FF4907201F034F807F10C030320FF211A464FF4907300F07CFB012387F8A63397F89903B7F85B
:400B0000A81307F59A72B7F8AA3300F06FFB0346002B01D00A2300E0002387F8AD3302E0032387F8AD330023A7F8A833F3E0F2E097F8A533012B03D10023A7F8A833F5E0B6
:400B4000E9E097F8A533012B24D1B7F8A823B7F8AA331344B3F5967F18D8002387F8AD33B7F8A83307F59A72D118B7F8AA2307F5187304330846194600F0DCFFB7F8A823F1
:400B8000B7F8AA331344A7F8A83303E0032387F8AD33C0E0BFE0B7F8AA33002B1BD107F59673694A92E8030083E80300012387F8A5330823A7F8AE33B7F8AE2307F51873BE
:400BC000191D07F596730846194600F0B3FF002387F8AD339FE09EE097F8A533012B40F08980B7F8AA33032B40F0848007F518739B799BB21B029AB207F518735B799BB239
:400C00001343A7F8943397F899333F2B12D997F899335BB2002B0DDBB7F894331B01C7F89033D7F890031021FFF7A2FC034687F8A43311E097F899331A02B7F894331344BE
:400C40001B02C7F89033D7F890034FF48071FFF773FC034687F8A43397F899333F2B23D897F8993303F510331A02B7F8943313445B01C7F890330023A7F8A23310E0B7F8E8
:400C8000A223D7F8903313441B78DAB297F8A433134487F8A433B7F8A2330133A7F8A233B7F8A2331F2BEAD997F89933032B13D1B7F89433FF2B0FD1244B1B78DBB297F88C
:400CC000A423D31A87F8A433214B1B78DBB297F8A423D31A87F8A43397F8A4335B42DAB207F518731A71002387F8AD330123A7F8AE3310E00FE00020FFF7E4FC0346002BB5
:400D000002D1144B80221A7000F00CFB03E0052387F8AD3300BF97F8AD1307F51872B7F8AE33084611461A4600F016F8FB1D1B78002B3FF45AAD97F8A533012B3FF455ADF5
:400D400007F56C77BD4680BD481F0000D0FF0300D1FF0300FA46004080B584B000AF03463960FB711346BB803B6801221A703B680133FA791A703B680233BA88D2B21A7082
:400D80003B680333BA88120A92B2D2B21A70BB8804339BB238681946FFF7ACFB0346FB81BB8804333A681344FA89D2B21A70BB8805333A681344FA89120A92B2D2B21A7019
:400DC000BB8806333A68134417221A70BB8807339AB23B1D386811461A46962300F0DEF8034618461037BD4680BD00BF80B586B000AF03460A46FB711346BB710223FB749F
:400E0000FB79013B062B64D801A252F823F000BF5D0E0000770E00008D0E0000470E0000A70E0000BD0E00002D0E0000BA7913461B069B1A1B0203F57F3303F576737B6155
:400E40000423FB744BE0BA7913461B069B1A1B0203F57F3303F2D2337B6140E0BA7913461B069B1A1B0203F57F3303F2C1337B610423FB7433E0BA7913461B069B1A1B027C
:400E800003F57F3303F2C5337B6128E0BA7913461B069B1A1B0203F57F3303F2C9337B610423FB741BE0BA7913461B069B1A1B0203F57F3303F2D6337B6110E0BA791346B1
:400EC0001B069B1A1B0203F57F3303F575737B6105E0002000F01AFA00237B6100BFFB7C022B0CD17B6901331B78DBB2FB607B691B78DBB21B02FA681343FB601BE07B69AB
:400F000003331B78DBB2FB607B6902331B78DBB21B02FA681343FB607B6901331B78DBB21B04FA681343FB607B691B78DBB21B06FA681343FB60FB79022B04D0032B0DD075
:400F4000012B0BD01BE0FB689BB21B029AB2FB681B0A9BB213439BB2FB6010E0FB681A0EFB6803F47F031B0A1A43FB6803F47F431B021A43FB681B061343FB6000BFFB68BD
:400F800018461837BD4680BD80B500AF00F0C6FB00F0C8FC00F018FD80BD00BF80B586B000AFF8607A601A460B467B8113467B720023FB8200F0B6FCFB8AFA6813441B78A8
:400FC000184600F0E7FCFB8A0133FB82FA8A7B899A42F1D37B687A891A80002318461837BD4680BD90B589B000AFF8607A601A460B467B8113467B720523BB610023FB839B
:401000001BE000F04FFC0346002B10D000F04AFC0346FB82192000F095F900F043FC03469BB2FA8A9A42F1D30023BB610DE0012000F088F9FB8B0133FB83F98B7A7A1346C3
:401040009B0013445B009942DBDB7B6800221A800023BB8336E000F025FC0346BB827B681A88BB8A13449AB27B681A807B681B887A899A421ED90023FB830CE0BB8BFA686A
:40108000D41800F0CDFB03462370BB8B0133BB83FB8B0133FB83FA8BBB8A9A42EED3BB8B013BFA6813441B78172B0BD0052000F049F907E07B681A88BB8AD31A9AB27B684A
:4010C0001A8004E000F0EEFB0346002BC3D1BB6918462437BD4690BD0230800803D000BF01380046FCD17047EFF3108072B6704780F31088704700BF80B582B000AF00F03D
:401100009FF94FF0FF337B6000F0ACFA0346002B24D1012000F074FA0346072B1BD11348022100F0AFF90346022B0DD100237B6002E0012000F028F90D4B1B78DBB203F0FF
:401140000203002BF5D006E0094B1B78DBB203F00203002BE3D000F0B9FA01E004237B607B6818460837BD4680BD00BF5881FF1F2247004080B582B000AFFFF7BDFF786005
:401180007B68002B02D1FFF7B7FF78607B6818460837BD4680BD00BF80B584B000AF78600023FB6000F04CF97B68002B06D10E4B1B680D4A13600123FB6010E000F052FA72
:4011C0000346002B06D0084B1B68074A13600423FB6004E0044A7B68136000F077FAFB6818461037BD4680BD4481FF1F80B586B000AFBA601A460346FB730B46BB81134644
:40120000FB8000F02FFA0346002B5AD1FA7BFB881046B9681A4600F061F978617B69072B4CD102E0012000F0AFF8294B1B78DBB203F00203002BF5D0254B1B78DBB203F0BD
:401240000203002B09D0224B1B78DBB29B08DBB2002B02D100237B6102E04FF0FF337B617B69002B2AD11B4B1A781A4B5B78F87BB98900F079F978617B69072B1ED102E06B
:40128000012000F081F8124B1B78DBB203F00203002BF5D00E4B1B78DBB203F00203002B09D00B4B1B78DBB29B08DBB2002B02D100237B6102E04FF0FF337B6100F006FA08
:4012C00001E004237B617B6918461837BD4680BD224700405881FF1F80B400AF094A094B1B78DBB243F01003DBB21370064A064B1B78DBB243F01003DBB21370BD465DF82A
:40130000047B7047AC430040BC43004080B483B000AF0346FB7101BE0C37BD465DF8047B704700BF80B400AF054A054B1B78DBB243F00103DBB21370BD465DF8047B704778
:40134000F646004080B582B000AF786008E00C4B1B681846FFF7C0FE7B68A3F500437B607B68B3F5004FF2D8064B1B687A6802FB03F31846FFF7B0FE0837BD4680BD00BF09
:401380002081FF1F1881FF1F80B582B000AF0346FB80FB88044A127802FB03F31846FFF79BFE0837BD4680BD1C81FF1F80B584B000AF03463960FB710F4B1B68FB60FB7956
:4013C0001F2B02D90020FFF7A1FFFB7903F01F0310339B00FA6813441B68BB60FB7903F01F0310339B00FA6813443A681A60BB6818461037BD4680BD08ED00E080B582B0D4
:4014000000AF03460A46FB711346BB71BB79072B02D90020FFF77AFFFB791F2B02D90020FFF774FFFB7903F01F0303F1604303F56443BA795201D2B21A700837BD4680BDAF
:4014400080B582B000AFFFF74FFE0346FB710B4A0A4B1B78DBB243F00803DBB21370084A074B1B78DBB243F00803DBB21370FB791846FFF73DFE0837BD4680BDA04300408F
:40148000B043004080B584B000AF78600B46FB700023FB7314E002E00120FFF775FF0D4B1B78DBB203F00103002BF5D0FB7B7A681344094A1278D2B21A70FB7B0133FB734A
:4014C000FA7BFB789A42E6D3FB7B18461037BD4680BD00BF224700402047004080B485B000AF03463960FB711346BB800723FB601B4B1B78DBB203F00203002B26D0194B83
:40150000B6221A70174BD5221A70164B02221A70134B1B78DBB203F00203002B13D1114AFB79137000237B8108E00E497B893A6813441B780B707B8901337B817A89BB889D
:401540009A42F2D304E00923FB6001E00423FB60FB6818461437BD465DF8047B704700BF224700402047004090B484B000AF0446084611461A462346FB710346BB800B4633
:40158000BB711346FB700723FB601B4B1B78DBB203F00203002B26D0184BB6221A70174BD8221A70154B05221A70134B1B78DBB203F00203002B13D1104AFB7913700F4A2C
:4015C000BB881B0A9BB2DBB213700C4BBA88D2B21A700A4ABB791370084AFB78137004E00923FB6001E00423FB60FB6818461037BD4690BC704700BF224700402047004041
:4016000080B485B000AF0346FB710723FB60134B1B78DBB203F00203002B16D0104BB6221A700F4BE1221A700D4B0E221A700B4B1B78DBB203F00203002B03D1084AFB79E8
:40164000137004E00923FB6001E00423FB60FB6818461437BD465DF8047B7047224700402047004080B582B000AF04237B60FFF73BFD0346FB70124B1B78002B16D1104BD8
:4016800001221A7000237B600E4B1B6803F00103002B0BD00B4A0B4B1B6823F00103136000BF00BF00BF084B01221A60FB781846FFF71EFD7B6818460837BD4680BD00BF60
:4016C0004881FF1F040008404C81FF1F80B582B000AFFFF709FD0346FB710D4B00221A700C4B1B68012B0BD10B4A0B4B1B6843F00103136000BF00BF00BF064B00221A601D
:40170000FB791846FFF7F4FC0837BD4680BD00BF4881FF1F4C81FF1F0400084080B500AF054B1B78002B04D100F008F8024B01221A7000F029F880BD5081FF1F80B500AFC3
:4017400000200B49FFF732FE00200721FFF756FE084B72221A70084B20221A70074B07221A70074B48221A70064B00221A7080BD091A0000816400408364004025640040F0
:40178000356400408264004080B582B000AFFFF7ABFC0346FB71124A114B1B78DBB243F02003DBB213700F4A0E4B1B78DBB243F01003DBB213700C4B01221A600B4A0B4BBD
:4017C0001B78DBB243F01003DBB2137000F072F9FB791846FFF78CFC0837BD4680BD00BF916400409364004000E100E09264004080B400AF034B01221A60BD465DF8047B82
:40180000704700BF00E100E080B400AF034B01221A60BD465DF8047B704700BF80E100E080B582B000AFFFF7EFFF194B1B78BB71184B1B787B71184B1B78DBB2002B03D194
:40184000BA797B799A4219D0BB79144AD35CFB71BB790133BB71BB795BB2002B01DA0023BB710B4ABB7913700B4B1B78DBB2002B03D0094B00221A7003E002E0084B1B78FA
:40188000FB71FFF7B5FFFB7918460837BD4680BD5181FF1F5281FF1F5381FF1F5C81FF1F4364004080B582B000AFFFF7ADFF1A4B1B78DAB2194B1B78DBB29A420AD1184B32
:4018C0001B78DBB2002B02D08023FB711DE00023FB711AE0104B1B78DAB2104B1B78DBB29A4208D20D4B1B78DAB20B4B1B78DBB2D31AFB7109E0094B1B78DAB2064B1B7805
:40190000DBB2D31ADBB2803BFB71FFF771FFFB7918460837BD4680BD5181FF1F5281FF1F5381FF1F80B582B000AFFFF7DDFB0346FB71134A124B1B78DBB243F00103DBB2B8
:4019400013700F4A0E4B1B78DBB223F00103DBB21370FB791846FFF7CBFBFFF755FF094B00221A70084B00221A70084B00221A70074B00221A70FFF73BFF0837BD4680BD68
:40198000936400405181FF1F5281FF1F5381FF1F5481FF1F80B483B000AF0346FB7100BF074B1B78DBB203F00403002BF8D1054AFB7913700C37BD465DF8047B704700BF6A
:4019C000626400404464004080B582B000AFFFF78BFB0346FB710B4A0A4B1B78DBB243F00103DBB21370074A064B1B78DBB223F00103DBB21370FB791846FFF779FB08373D
:401A0000BD4680BD9464004080B483B000AF0023BB71214B1B78FB7134E0204B1B78DBB21A461F4B1B78D9B21E4B99540123BB71BB79002B23D01C4B1B78DBB2002B02D05B
:401A40001A4B01221A70154B1B78DBB20133DAB2124B1A70114B1B78DBB2DBB25BB2002B02DA0E4B00221A700C4B1B78DAB2104B1B78DBB29A4202D10B4B01221A70064B17
:401A80001B78FB71FB7903F02003002BC5D10C37BD465DF8047B7047636400405281FF1F436400405C81FF1F5381FF1F5481FF1F5181FF1F80B400AF094A094B1B78DBB2B2
:401AC00043F00103DBB21370064A064B1B78DBB243F00103DBB21370BD465DF8047B7047A2430040B24300400E4B70B51E460E4C0025E41AA410A54204D056F8253098475F
:401B00000135F8E700F024FA084B094C1E46E41AA4100025A54204D056F8253098470135F8E770BD5C1F00005C1F00005C1F0000641F000010B5431E0A44914204D011F808
:401B4000014B03F8014FF8E710BD03460244934202D003F8011BFAE770470000C10000000020000000000000005100404000505100402000C05100401000F0510040100098
:401B800000000140001000140140000800400140000A004C01400002005001402000000001520040036400403F000140310101404D020140460301405E0401403D0501403F
:401BC000020701400640014006410140035001400151014024018172820F833800010206040708070901140616011901200424022501280629012E01360737013F40580442
:401C000059045F01830484028508881F89DF8E138FC39003911C93C2940F951C961097C1981399449A0C9B209C089DC79F18A001A110A404A580A80CA918AC0CADC0AE1342
:401C4000B120B21CB40FB51FB7C0BA28BB20D602D713D804D904DB04DF01001002A004100601071009080C810D080E0410A01180120113201480176819801D1C1E04230165
:401C800025012620270129142C912E20322035243681381039203C103D823E085F016E506F2074A076287728811082A18340C0EEC2F4C4FFCAF6CCF4CEF4D6800340056018
:401CC000060109010B0A0D1013041560180119021B091E01212022012513280129133001310C33033560371039203E013F115401580459045B045F018202840185018E0447
:401D0000920296019801A601AA04B001B101B402B604B802BB20BE50BF01C061C102C205C404C60EC70CC814C9FFCAFFCBFFCC62CDA0CEF0CF41D00CD418D604D804D9043F
:401D4000DA04DB04DF01E640E702E910EA30EB10ED10EE10EF120008018003800408072009280A800E091008122015011608180419401A801E8021302340244025C0271439
:401D80002E112F6034113605371039083C023D013E483F284040419048044990500853805B015E805F29600461406201820192509520974099B09B019C119F10A108A2207C
:401DC000A330A540A880A920AB10B340C02DC2CEC456CAE0CCE0CEF2D00DD20CD6F1D80DEA20020E0320070608030A0C0D380F041009140315181604172219281D121F2056
:401E00002010280329202A042B182D01320F333E341037013A083E104032410645EB470C481349FF4AFF4BFF4EF04F44500C580459045A045F0166C06A406B02840186063D
:401E4000875089078C048D208E01900493709730980199049A029B019D019F06A160A207A507A902AB01AD08B107B370B508B607BA80BB08BF10C003C510C750C822C9FF3C
:401E8000CA07CBFFCC40CD20CEF0CF05D008D804D904DA04DF01E040E1A8E240E32000120540072009080B800F8810881240170218141B041D401F40200221042240230256
:401EC0002508260527682A402B042D202F613020310832403604375239083A013B803E103F884014470448204A044B034C80500C5601921094089508978199209B149F0857
:401F0000A320A401A605A704C0AAC25CC41ACAFCCCFECE7BD046D204AA01AB40034030805310C010CC10D4208080A480AB40B310E220EC80000108010A01000302000102CF
:401F400002000200000000006930122E00140101F8B500BFF8BC08BC9E4670476100000041010000F8B500BFF8BC08BC9E4670473D000000881F00000881FF1F2000000022
:401F8000B800000000000000000000005C1B0000601B000000366E01C05D0000180000000000E02E000000000000000000000000000000000000000000000000000000008F
:401FC00000000000000000000000000000000000000000000000000000000000000000000000000000000000000000000000000000000000000000000000000000000000E1
:402000000080002011200000BDC90100BDC9010080B500AF1AF000FD10B5054C237833B9044B13B10448AFF300800123237010BDD881FF1F000000000C2F0200084B10B568
:402040001BB108480849AFF300800848036803B910BD074B002BFBD0BDE81040184700BF000000000C2F0200DC81FF1F0881FF1F0000000080B584B000AF0346FB71FB7992
:40208000012B29D100201BF09BFC4FF4FA701AF0C5FF01201BF094FC05201AF0BFFF1BF0A9FC0346002B01D100233EE041201AF0B5FF1BF09FFC0346002B0CBF0123002392
:4020C000DBB2FB73F0201AF0A9FFFB7B002B01D001232AE0002328E000201BF099FC4FF4FA701AF09BFF01201BF092FC05201AF095FF1BF0ABFC0346002B01D1002314E0BB
:4021000041201AF08BFF1BF0A1FC0346002B0CBF01230023DBB2FB73F0201AF07FFFFB7B002B01D0012300E0002318461037BD4680BD00BF80B584B000AF03460A46FB718F
:402140001346BB71FB79012B3BD10023FB7333E000201BF035FC0A201AF060FFBA79FB7B42FA03F303F00103002B0CD001201BF027FC0A201AF052FF1BF03CFC0346002B37
:402180000ED1002358E000201BF01AFC0A201AF045FF1BF02FFC0346002B01D000234BE032201AF03BFF01201BF00AFC32201AF035FFFB7B0133FB73FB7B072BC8D9012386
:4021C0003AE00023FB7333E000201BF021FC0A201AF024FFBA79FB7B42FA03F303F00103002B0CD001201BF013FC0A201AF016FF1BF02CFC0346002B0ED100231CE0002060
:402200001BF006FC0A201AF009FF1BF01FFC0346002B01D000230FE032201AF0FFFE01201BF0F6FB32201AF0F9FEFB7B0133FB73FB7B072BC8D9012318461037BD4680BDA5
:4022400080B584B000AF0346FB710023BB73FB79012B25D10023FB731DE000201BF0B0FB0E201AF0DBFE01201BF0AAFB07201AF0D5FE1BF0BFFB03461A46FB7B02FA03F38A
:40228000DAB2BB7B1343DBB2BB7364201AF0C6FEFB7B0133FB73FB7B072BDED9BB7B24E00023FB731DE000201BF0B2FB0E201AF0B5FE01201BF0ACFB07201AF0AFFE1BF03B
:4022C000C5FB03461A46FB7B02FA03F3DAB2BB7B1343DBB2BB7364201AF0A0FEFB7B0133FB73FB7B072BDED9BB7B18461037BD4680BD00BF80B485B000AF03460A46FB71A0
:402300001346BB71FA79BB795340FB710023FB6012E0FB7903F00103002B07D0FB795B08DBB283F07303DB43FB7102E0FB795B08FB71FB680133FB60FB68072BE9D9FB79DC
:4023400018461437BD465DF8047B704780B582B000AF00237B6038E01BF064FA682000211BF058F90346FB70FB78002B28D17B68DBB218461BF0D8F90346FB70FB78002B45
:4023800001D0002325E01BF0A3F90A201AF024FE682001211BF03EF90346FB70FB78002B0CD100201BF000FA034619460B4A7B6813440A461A701BF08BF903E0002308E059
:4023C000002306E07B6801337B607B68022BC3D9012318460837BD4680BD00BF148BFF1F90B583B000AF04237B6037E01BF01AFA682000211BF00EF90346FB70FB78002B4D
:4024000027D17B68DBB218461BF08EF90346FB70FB78002B01D0002324E01BF059F90A201AF0DAFD682001211BF0F4F80346FB70FB78002B0BD17B681C1F00201BF0B4F9CD
:4024400003461A46094B1A551BF042F903E0002308E0002306E07B6801337B607B68062BC4D9012318460C37BD4690BDBC8DFF1F80B584B000AF00233B711C4B1B78DBB226
:402480007B711A4B5B78DBB2BB71184B9B78DBB2FB711BF0C7F9682000211BF0BBF80346FB72FB7A002B17D10023FB6010E03A1DFB6813441B7818461BF036F90346FB7200
:4024C000FB7A002B01D000230BE0FB680133FB60FB68032BEBD901E0002302E01BF0F8F8012318461037BD4680BD00BF148BFF1F80B584B000AF04233B711C4B1B78DBB23E
:402500007B711A4B5B78DBB2BB71184B9B78DBB2FB711BF087F9682000211BF07BF80346FB72FB7A002B17D10023FB6010E03A1DFB6813441B7818461BF0F6F80346FB7240
:40254000FB7A002B01D000230BE0FB680133FB60FB68032BEBD901E0002302E01BF0B8F8012318461037BD4680BD00BFBC8DFF1F80B582B000AF0346FB710B46BB80134615
:40258000BB71FA79BB881046194613F0B3F8FB79012B16D1BA791346DB009B1A1A46154B1A60154B00221A6014494FF000024FF00003C1E9002312481BF052F91BF0B4FCE5
:4025C00015E0BA791346DB009B1A1A460D4B1A600D4B00221A600D494FF000024FF00003C1E900230A481BF093F91BF0FDFA0837BD4680BDB88DFF1F948DFF1FE886FF1F66
:4026000089550100D884FF1FC08DFF1F008BFF1F15560100F0B583B000AF62B61CF0B2FA1CF048FA1CF020FE1CF0B4FD1BF058FD1BF0ECFC1CF052FC1CF0E6FB1CF0B8F8DF
:402640001BF034FF1AF0FAFD1BF0B2FEB3481BF00DFA1BF0ABFBB2494FF000024FF00003C1E900234FF47A701AF0B6FC0023BB711DE00023FB7114E0B979FA79F879BB7955
:40268000DB00034403F1804303F500431B78DCB2A448CB001344034422461A70FB790133FB71FB79072BE7D9BB790133BB71BB79712BDED90120372113F01CF801205721E0
:4026C00013F0D2F80220372113F014F80220572113F0CAF8944B1B78DBB203F00703DAB2924B1A70924B1B78DBB2924AA2FB0323DB08DBB203F00703DAB28F4B1A708C4B66
:402700001B78DAB28B4BA3FB0213D9080B469B000B445B00D31ADBB203F00703DAB2874B1A70874B1B78DBB203F00103DAB2854B1A70854B1B78DBB203F00703DAB2834B05
:402740001A70834B1B78DAB2824B1A70824B1B78DAB2804B5A700023BB710023FB714CE0BA79F9797D4B0B441B78DBB27C49A1FB03135B09DBB203F00303DBB23033D9B248
:40278000784B9954BB79581CFA79744B13441B78DBB2684AA2FB0323DB08DAB2654BA3FB0213D9080B469B000B445B00D31ADBB203F00F03DBB23033DAB26A4B1A54BB7908
:4027C000981CFA79654B13441B78DAB2594BA3FB0213D9080B469B000B445B00D31ADBB203F00F03DBB23033DAB25E4B1A54BB790333BB71FB790133FB71FB79032BAFD9D8
:40280000594B1B78DBB203F00103DAB2574B1A70574B1B78DAB2574B1A70574B14221A700123FB710AE0FA79F979514B0B441B78D9B2514B9954FB790133FB71FB79142B1E
:40284000F1D940F2CF333B600023BB7127E00123FB7114E0B979FA79F8793B68034403F1804303F500431B78DCB24448CB0003441344B03322465A71FB790133FB71FB793F
:40288000062BE7D9BB793D4A1633DB00134406225A713B6806333B60BB790133BB71BB79032BD4D940F2E7333B600023BB7128E00123FB7115E0B979FA79F8793B68034421
:4028C00003F1804303F500431B78DCB22B48CB000344134403F5D87322465A71FB790133FB71FB79062BE6D9BB79244A3633DB00134406225A713B6806333B60BB790133EC
:40290000BB71BB79032BD3D940F28F333B600023BB715EE00123FB7149E000BFA1560100088BFF1FF486FF1FB0830040EE8AFF1FB1830040CDCCCCCCC48DFF1FDD86FF1FEA
:40294000B2830040108BFF1FB3830040EA8AFF1FB4830040EC8AFF1FB5830040B68300401F85EB51F08AFF1FBA830040F086FF1FBB830040C58DFF1FBC84FF1FDC84FF1FD2
:40298000BA79F979F8793B68034403F1804303F500431B78DCB24E4813469B0013445B000B44034422461A70FB790133FB71FB79082BE5D9BA79464913469B0013445B005F
:4029C0000B4408221A703B6808333B60BB790133BB71BB79022B9DD90023BB713DE00123FB7125E0BA79FC79B979FD79B879384E03469B0003445B0033441B781846354B7A
:402A00001B78DBB2C31AE818314D0B469B000B445B0003442B4418782D4913469B0013445B0023440B4402461A70FB790133FB71284B1B78DBB2FA799A42D3D9BA79254B56
:402A40001B78D8B2224913469B0013445B000B4402461A70BB790133BB71BB79022BBED91D4B1B78DBB203F00103DBB23033DAB21A4B1A701A4B1B78DBB203F00103DBB288
:402A80003033DAB2154B5A70164B162283F87A20154B162283F87A20124B002283F87B20114B002283F87B200E4B002283F87A220D4B002283F87A220C4B00221A700C4BFC
:402AC00001221A600B4B01221A600C37BD46F0BDCC8AFF1FEE8AFF1FA8830040E086FF1FA9830040188BFF1F4082FF1FC28AFF1F948DFF1FC08DFF1F80B582B000AF002300
:402B0000FB718DE017F0C2F80346012B15D0022B24D0002B00D083E001202C2112F0EAFD0120512112F0A0FE02202C2112F0E2FD0220512112F098FE72E001202C2112F05A
:402B4000D9FD0120512112F08FFE02202C2112F0D1FD0220512112F087FE61E064201AF03BFA334B1B78184617F06EF80346062B45D12F4B93F80031184617F065F8034652
:402B8000062B2BD10023BB711FE0294B1878BB790133D9B2BB791633DB00254A134405331A4617F041FD224B93F80001BB790133D9B2BB793633DB001D4A134405331A46EE
:402BC00017F032FDBB790133BB711A4B1B78DBB2BA799A42D9D30223FB7120E001202C2112F088FD0120512112F03EFE02202C2112F080FD0220512112F036FE0FE00120AC
:402C00002C2112F077FD0120512112F02DFE02202C2112F06FFD0220512112F025FE00BFFB79002B3FF46EAF0837BD4680BD00BFDC84FF1FEA8AFF1F90B5ADF2046D00AF7B
:402C40000023C7F8F0351BF0A7FA0346002B03F07F811BF0A1FA0346C7F8E43532201AF0BBF91BF099FA0346C7F8E035D7F8E425D7F8E0359A4243F06B810023C7F8FC35DE
:402C80000FE01BF045FA0346194607F5CA72D7F8FC3513440A461A70D7F8FC350133C7F8FC351BF079FA0346002BEAD11BF0B6FA1AF00CFA3B1D42221A703B1D47225A705D
:402CC0003B1D45229A70B34B1A783B1DDA703B1D63221A713B1D3B225A713B1D3B22DA713B1D26221A7207F5CA731B784D2B43F0808007F5CA735B78552B43F07A8007F599
:402D0000CA739B78582B43F07480D7F8FC35013B07F5CA72D35C2A2B43F06B8007F5CA73DA789C4B1B789A4241F0568307F5CA731B79413B182B01F22F8301A252F823F067
:402D4000A52D00001F2E00004B2E0000672F0000A531000007320000C5320000753B0000BB3E00004F3F0000D33F0000F93F000077410000D5410000994300009943000018
:402D80009943000099430000994300009943000099430000994300009943000099430000E341000007F5CA739B79312B2BD17A4B082283F825200123C7F8F43511E0D7F8EF
:402DC000F435073307F5CA72D15C734AD7F8F435134420330A465A71D7F8F4350133C7F8F435D7F8F435082BE9D907F5CA735B7C03F00103DAB2684B83F84820664B012293
:402E000083F8492003E0644B022283F849203B1D31229A710623C7F8F83501F0BDBA07F5CA739B79312B04D15B4B012283F8492003E0594B022283F849203B1D31229A7171
:402E40000623C7F8F83501F0A7BA07F5CA739B79312B04D1504B012283F8492003E04E4B022283F849204C4B082283F85A210123C7F8F43512E0D7F8F435073307F5CA7228
:402E8000D15C454AD7F8F435134403F5AC730A469A70D7F8F4350133C7F8F435D7F8F435082BE8D93C4B082283F850210123C7F8F43512E0D7F8F435103307F5CA72D15C5B
:402EC000354AD7F8F435134403F5A8730A461A70D7F8F4350133C7F8F435D7F8F435082BE8D92D4B062283F864210123C7F8F43512E0D7F8F435193307F5CA72D15C264A60
:402F0000D7F8F435134403F5B0730A461A71D7F8F4350133C7F8F435D7F8F435062BE8D90023C7F8F43512E0D7F8F435213307F5CA72D15C184AD7F8F435134403F5847300
:402F40000A46DA71D7F8F4350133C7F8F435D7F8F4353B2BE8D93B1D31229A710623C7F8F83501F019BA07F5CA739B79312B15D1094B012283F84920074B93F86832194634
:402F8000054A0B469B000B44134403F2032331221A7132E0DC84FF1F188BFF1FCE4B022283F84920CC4B93F868321946CA4A0B469B000B44134403F2032330221A71C64B7B
:402FC00093F868321A46C44913469B0013449A0013440B4403F5B47301229A71BE4B93F868321A46BC4913469B0013449A0013440B4403F2691320229A71B74B93F8683264
:403000001946B54A0B469B000B44134403F5007303221A71B04B93F868321946AE4A0B469B000B44134403F2012330221A71AA4B93F868321946A84A0B469B000B44134489
:4030400003F2022330221A71A34B93F868321A46A14913469B0013449A0013440B4403F5DC7314225A700123C7F8F4351CE09A4B93F868321846D7F8F435073307F5CA7250
:40308000D45C954903469B0003449A001344CA18D7F8F435134403F5DC7322465A70D7F8F4350133C7F8F435D7F8F435142BDED9894B93F868321946874A0B469B000B44D6
:4030C0005B00134403F5107308221A700123C7F8F4351BE0804B93F868321946D7F8F4351C3307F5CA72D05C7B4A0B469B000B445B001A44D7F8F435134403F51073024623
:403100001A70D7F8F4350133C7F8F435D7F8F435082BDFD9704B93F8683219466E4A0B469B000B44134403F504730322DA706A4B93F86832194607F5CA7393F82600664AD4
:403140000B469B000B44134403F211230246DA70614B93F86832194607F5CA7393F827005D4A0B469B000B44134403F212230246DA70594B93F86832194607F5CA7393F806
:403180002800554A0B469B000B44134403F213230246DA703B1D31229A710623C7F8F83501F0FAB807F5CA739B79312B04D14A4B012283F8492003E0474B022283F84920F4
:4031C0000023C7F8F43512E0D7F8F435083307F5CA72D15C404AD7F8F435134403F584730A46DA71D7F8F4350133C7F8F435D7F8F4353B2BE8D93B1D31229A710623C7F806
:40320000F83501F0C9B807F5CA739B79312B11D1314B012283F84920304B1B78DBB2002B0CBF01230023DBB21A462C4B1A7019F031F824E00123C7F8F43510E0D7F8F42501
:40324000274B13441B78D9B2264AD7F8F43513440A461A70D7F8F4350133C7F8F435D7F8F435142BEAD91F4B14221A701C4B1B78DAB21D4B1A70184B022283F84920002390
:40328000C7F8F43512E0D7F8F435083307F5CA72D15C114AD7F8F435134403F584730A46DA71D7F8F4350133C7F8F435D7F8F4353B2BE8D93B1D31229A710623C7F8F8356A
:4032C00001F06AB807F5CA739B79312B0ED1034B01221A7013E000BF188BFF1FF086FF1FBB830040BC84FF1FC58DFF1FCC4B00221A70CC4B01221A60CB4B01221A6018F0B3
:40330000C9FFCA4B1B78184616F0AAFD0346002B08D0C64B93F80031184616F0A1FD0346002B50D10023C7F8F43548E00023C7F8F0353BE00023C7F8EC352EE0BB48D7F82A
:40334000F035D7F8F4151A461201D21A0B465B000B441901C91A5318C218D7F8EC35134400225A70B148D7F8F035D7F8F4151A461201D21A0B465B000B441901C91A5318FA
:40338000C218D7F8EC35134403F5807300225A70D7F8EC350133C7F8EC35D7F8EC350D2BCCD9D7F8F0350133C7F8F035D7F8F035022BBFD9D7F8F4350133C7F8F435D7F89C
:4033C000F435032BB2D919F081FE0023C7F8E835D9E1D7F8E82513469B001344DA00D31A05333A1D3B21D1549049D7F8E82513465B0013441A01D21A8B185B78C7F8F0358B
:40340000D7F8F035002B0ED10123C7F8F0358749D7F8E82513465B0013441A01D21A8B18013330225A700023C7F8EC350D23C7F8F43561E0D7F8E82513469B001344DA0078
:40344000D21AD7F8F4351344591D7848D7F8E82513465B0013441A01D21AD7F8F035134403445A783B1D5A54D7F8F035013BC7F8F035D7F8EC350133C7F8EC356C4B1B7821
:40348000DBB2013B1A46D7F8EC359A4212D1D7F8F435013BC7F8F435D7F8E82513469B001344DA00D21AD7F8F435134405333A1D2C21D154D7F8F035002B18D112E0D7F812
:4034C000F435013BC7F8F435D7F8E82513469B001344DA00D21AD7F8F435134405333A1D3021D154D7F8F435012BE8D808E0D7F8F435013BC7F8F435D7F8F435002B99D1C9
:40350000D7F8E82513469B001344DA00D31A13333A1D3B21D1544549D7F8E82513465B0013441A01D21A8B180F335B78C7F8F035D7F8F035002B0ED10123C7F8F0353B49DD
:40354000D7F8E82513465B0013441A01D21A8B18103330225A700023C7F8EC350D23C7F8F4356EE0D7F8E82513469B001344DA00D21AD7F8F435134403F113012B48D7F86C
:40358000E82513465B0013441A01D21A0244D7F8F03513440F335A783B1D5A54D7F8F035013BC7F8F035D7F8EC350133C7F8EC35204B1B78DBB21A46D7F8EC359A4212D18F
:4035C000D7F8F435013BC7F8F435D7F8E82513469B001344DA00D21AD7F8F435134413333A1D2C21D154D7F8F035002B24D112E0D7F8F435013BC7F8F435D7F8E82513460D
:403600009B001344DA00D21AD7F8F435134413333A1D3021D154D7F8F435012BE8D814E0F086FF1F948DFF1FC08DFF1FDC84FF1FDD86FF1FC48DFF1FD7F8F435013BC7F8F9
:40364000F435D7F8F435002B8CD1D7F8E82513469B001344DA00D31A21333A1D3B21D154E549D7F8E82513465B0013441A01D21A8B181E335B78C7F8F035D7F8F035002BA1
:403680000ED10123C7F8F035DB49D7F8E82513465B0013441A01D21A8B181F3330225A700023C7F8EC350623C7F8F43562E0D7F8E82513469B001344DA00D21AD7F8F435C5
:4036C000134403F12101CC48D7F8E82513465B0013441A01D21A0244D7F8F03513441E335A783B1D5A54D7F8F035013BC7F8F035D7F8EC350133C7F8EC35C04B1B78DBB25E
:403700001A46D7F8EC359A4212D1D7F8F435013BC7F8F435D7F8E82513469B001344DA00D21AD7F8F435134421333A1D2C21D154D7F8F035002B18D112E0D7F8F435013BD7
:40374000C7F8F435D7F8E82513469B001344DA00D21AD7F8F435134421333A1D3021D154D7F8F435012BE8D808E0D7F8F435013BC7F8F435D7F8F435002B98D1D7F8E835A4
:403780000133C7F8E835D7F8E835032B7FF621AE0023C7F8E835DFE1D7F8E82513469B001344DA00D31A91333A1D3B21D1549249D7F8E82513465B0013441A01D21A8B18E6
:4037C00003F580735B78C7F8F035D7F8F035002B0FD10123C7F8F0358749D7F8E82513465B0013441A01D21A8B1803F2011330225A700023C7F8EC350D23C7F8F43564E03B
:40380000D7F8E82513469B001344DA00D21AD7F8F435134403F191017748D7F8E82513465B0013441A01D21A0244D7F8F035134403F580735A783B1D5A54D7F8F035013B95
:40384000C7F8F035D7F8EC350133C7F8EC356C4B1B78DBB2013B1A46D7F8EC359A4212D1D7F8F435013BC7F8F435D7F8E82513469B001344DA00D21AD7F8F4351344913322
:403880003A1D2C21D154D7F8F035002B18D112E0D7F8F435013BC7F8F435D7F8E82513469B001344DA00D21AD7F8F435134491333A1D3021D154D7F8F435012BE8D808E090
:4038C000D7F8F435013BC7F8F435D7F8F435002B96D1D7F8E82513469B001344DA00D31A9F333A1D3B21D1544349D7F8E82513465B0013441A01D21A8B1803F20F135B7883
:40390000C7F8F035D7F8F035002B0FD10123C7F8F0353949D7F8E82513465B0013441A01D21A8B1803F5887330225A700023C7F8EC350D23C7F8F43569E0D7F8E8251346E1
:403940009B001344DA00D21AD7F8F435134403F19F012948D7F8E82513465B0013441A01D21A0244D7F8F035134403F20F135A783B1D5A54D7F8F035013BC7F8F035D7F8EA
:40398000EC350133C7F8EC351C4B1B78DBB21A46D7F8EC359A4212D1D7F8F435013BC7F8F435D7F8E82513469B001344DA00D21AD7F8F43513449F333A1D2C21D154D7F87A
:4039C000F035002B1ED112E0D7F8F435013BC7F8F435D7F8E82513469B001344DA00D21AD7F8F43513449F333A1D3021D154D7F8F435012BE8D80EE0DC84FF1FC48DFF1FE0
:403A0000DD86FF1FD7F8F435013BC7F8F435D7F8F435002B91D1D7F8E82513469B001344DA00D31AAD333A1D3B21D154C449D7F8E82513465B0013441A01D21A8B1803F528
:403A40008F735B78C7F8F035D7F8F035002B0FD10123C7F8F035BA49D7F8E82513465B0013441A01D21A8B1803F21F1330225A700023C7F8EC350623C7F8F43563E0D7F889
:403A8000E82513469B001344DA00D21AD7F8F435134403F1AD01AA48D7F8E82513465B0013441A01D21A0244D7F8F035134403F58F735A783B1D5A54D7F8F035013BC7F8C5
:403AC000F035D7F8EC350133C7F8EC359D4B1B78DBB21A46D7F8EC359A4212D1D7F8F435013BC7F8F435D7F8E82513469B001344DA00D21AD7F8F4351344AD333A1D2C21AA
:403B0000D154D7F8F035002B18D112E0D7F8F435013BC7F8F435D7F8E82513469B001344DA00D21AD7F8F4351344AD333A1D3021D154D7F8F435012BE8D808E0D7F8F4359D
:403B4000013BC7F8F435D7F8F435002B97D1D7F8E8350133C7F8E835D7F8E835032B7FF61BAE3B1D6C221A714FF48E73C7F8F83500F012BC07F5CA731B7A1B01DAB2724BB0
:403B80009A70714B9B78DBB2DAB207F5CA735B7ADBB203F00F03DBB21343DBB2DAB26A4B9A7007F5CA739B7A1B01DAB2664B5A70654B5B78DBB2DAB207F5CA73DB7ADBB290
:403BC00003F00F03DBB21343DBB2DAB25E4B5A7007F5CA731B7B1B01DAB25B4B1A705A4B1B78DBB2DAB207F5CA735B7BDBB203F00F03DBB21343DBB2DAB2534B1A70FEF79F
:403C000077FC07F5CA739B7B1B01DAB24F4B9A704E4B9B78DBB2DAB207F5CA73DB7BDBB203F00F03DBB21343DBB2DAB2474B9A7007F5CA731B7C1B01DAB2444B5A70434B99
:403C40005B78DBB2DAB207F5CA735B7CDBB203F00F03DBB21343DBB2DAB23C4B5A7007F5CA739B7C1B01DAB2384B1A70374B1B78DBB2DAB207F5CA73DB7CDBB203F00F0314
:403C8000DBB21343DBB2DAB2304B1A70FEF7F0FB07F5CA735B7D03F00703DAB22C4B1A7007F5CA73DB7D03F00703DAB2254B1A7007F5CA735B7E03F00703DAB2254B1A70DF
:403CC00007F5CA73DB7E03F00103DAB2224B1A7007F5CA735B7F03F00703DAB21F4B1A7007F5CA73DA7F1E4B1A7007F5CA7393F821201B4B5A700023C7F8F43510E0D7F8A4
:403D0000F435233307F5CA72D15C164AD7F8F43513440A461A70D7F8F4350133C7F8F435D7F8F4350B2BEAD92F23C7F8E8350023C7F8EC354AE00123C7F8F4352EE000BFDD
:403D4000DC84FF1FC48DFF1FBC8DFF1F148BFF1FEE8AFF1FDD86FF1F108BFF1FEA8AFF1FEC8AFF1FF08AFF1FD7F8E825D7F8F435134407F5CA72D05CCE49D7F8EC251346C5
:403D80009B0013445B00D7F8F42513440B4402461A70D7F8F4350133C7F8F435D7F8F435082BE1D9C349D7F8EC2513469B0013445B000B4408221A70D7F8E8350933C7F8E1
:403DC000E835D7F8EC350133C7F8EC35D7F8EC35022BB0D907F5CA7393F84B3003F00103DBB23033DAB2B44B1A7007F5CA7393F84D3003F00103DBB23033DAB2AE4B5A704A
:403E000018F048FA0023C7F8EC354BE00123C7F8F4352DE0A749D7F8EC2513469B0013445B000B441B781A46A44B1B78DBB2D31A1A46D7F8F435D1189E48D7F8EC251346DD
:403E40009B0013445B000B44034418789949D7F8EC2513469B0013445B00D7F8F42513440B4402461A70D7F8F4350133C7F8F435924B1B78DBB21A46D7F8F4359A42C9D227
:403E80008E4B1B78D8B28B49D7F8EC2513469B0013445B000B4402461A70D7F8EC350133C7F8EC35D7F8EC35022BAFD93B1D31229A710623C7F8F8356EE20523C7F8EC35C5
:403EC0000023C7F8E83531E00123C7F8F43517E0D7F8F425D7F8EC35134407F5CA72D15C774AD7F8E835DB001A44D7F8F4351344B0330A465A71D7F8F4350133C7F8F435D4
:403F0000D7F8F435062BE3D96D4AD7F8E8351633DB00134406225A71D7F8EC350733C7F8EC35D7F8E8350133C7F8E835D7F8E835032BC9D9634B012283F87A2218F0E6FBF8
:403F40003B1D31229A710623C7F8F83524E20623C7F8E8350023C7F8F4352BE00023C7F8EC3519E007F5CA72D7F8E835134418785549D7F8F435DA00D7F8EC3513440B4448
:403F800002461A70D7F8E8350133C7F8E835D7F8EC350133C7F8EC35D7F8EC35072BE1D9D7F8E8350133C7F8E835D7F8F4350133C7F8F435D7F8F435712BCFD918F0A2FC61
:403FC00019F084F83B1D31229A710623C7F8F835E2E107F5CA739B79312B03D13B4B01221A7002E0394B01221A703B1D31229A710623C7F8F835CFE107F5CA739A79314BA8
:4040000083F863202F4B93F86330562B04D12D4B012283F8622003E02A4B022283F862200F23C7F8EC35254B1B78DBB2C7F8F43523E007F5CA72D7F8EC3513441978214A7B
:40404000D7F8F435134460330A461A7107F5CA72D7F8EC35134419781A4AD7F8F43513446A330A461A71D7F8EC35013BC7F8EC35D7F8F435013BC7F8F435D7F8F435002BFD
:40408000D7D10E4B1B78DAB20E4B83F864200B4B1B78DAB20B4B83F86E2007F5CA735B7C03F00703DAB2074B83F878200123C7F8F43520E0CC8AFF1FE086FF1FEE8AFF1F1C
:4040C000DC84FF1F188BFF1FF486FF1FC28AFF1FD7F8F435123307F5CA72D15CD34AD7F8F435134403F5B0730A461A71D7F8F4350133C7F8F435D7F8F435062BE8D9CB4B67
:40410000062283F8642119F0BDFB19F01DFFC74B312283F86120C54B342283F86020C34B002283F85F20C14B002283F8EA20BF4B002283F8F520BD4B002283F80021BB4B4A
:4041400000221A70B94B00225A7001202B2111F0D1FA0120552111F087FBB44B2B2283F87A20B34B1C221A603B1D31229A710623C7F8F83510E107F5CA739B79312B1BD1E8
:40418000AA4B382283F87A200120412111F0B2FA01204B2111F068FBA64819F061FB19F0C3FEA5494FF000024FF00003C1E900239F4B2C221A6006E09C4B162283F87A2053
:4041C0009B4B01221A603B1D31229A710623C7F8F835E1E03B1D31229A710623C7F8F835DAE0924B93F87A30193B282B00F2C88001A252F823F000BF9D420000B3420000A5
:40420000814300008143000081430000814300008143000081430000C94200008143000081430000DF42000081430000F542000081430000814300000B430000814300009D
:4042400081430000814300008143000081430000814300008143000021430000814300003743000081430000554300008143000081430000814300008143000081430000D4
:404280008143000081430000814300008143000081430000814300006B430000634B012283F80D213B1D31229A710623C7F8F83571E05E4B162283F87A203B1D31229A7176
:4042C0000623C7F8F83566E0584B222283F87A203B1D31229A710623C7F8F8355BE0534B252283F87A203B1D31229A710623C7F8F83550E04D4B272283F87A203B1D3122CB
:404300009A710623C7F8F83545E0484B2A2283F87A203B1D31229A710623C7F8F8353AE0424B322283F87A203B1D31229A710623C7F8F8352FE03D4B002283F879203B4B4B
:40434000162283F87A203B1D31229A710623C7F8F83520E0354B362283F87A203B1D31229A710623C7F8F83515E0304B422283F87A203B1D31229A710623C7F8F8350AE0CF
:404380002A4B162283F87A203B1D31229A710623C7F8F83500BF00BF18F098FE0023C7F8F4350CE03A1DD7F8F43513441B78184619F06CFFD7F8F4350133C7F8F435D7F86F
:4043C000F425D7F8F8359A42ECD93B2019F05EFF262019F05BFF17E03B1D30229A710023C7F8F4350CE03A1DD7F8F43513441B78184619F04BFFD7F8F4350133C7F8F435FC
:40440000D7F8F435082BEED90023C7F8F0351AE007F5CA72D7F8F03513441B78262B0DD1D7F8F0350133C7F8F03513E0188BFF1F948DFF1F89550100E886FF1FD7F8F035E6
:404440000133C7F8F035D7F8FC355A1ED7F8F0359A42DDD23B1D63221A713B1D3B225A7107F5CA72D7F8F03513441A78C64B93F800319A4241F09F84D7F8F0350133C7F84C
:40448000F03507F5CA72D7F8F03513441B78413B182B01F26B8401A252F823F001450000A9450000E545000049470000CB4900004B4A00003B4B0000F15300001758000050
:4044C000B1580000395900006F590000275B0000955B00006D5D00006D5D00006D5D00006D5D00006D5D00006D5D00006D5D00006D5D00006D5D00006D5D0000A35B000005
:40450000D7F8F0350233C7F8F03507F5CA72D7F8F03513441B78312B3AD1D7F8F0350133C7F8F035994B082283F825200123C7F8F43513E0D7F8F425D7F8F035134407F5E9
:40454000CA72D15C914AD7F8F435134420330A465A71D7F8F4350133C7F8F435D7F8F435082BE7D9D7F8F0350A33C7F8F03507F5CA72D7F8F03513441B7803F00103DAB28D
:40458000824B83F84820814B012283F8492003E07E4B022283F849203B1D31229A710623C7F8F83501F0E2BBD7F8F0350233C7F8F03507F5CA72D7F8F03513441B78312BEC
:4045C00004D1724B012283F8492003E06F4B022283F849203B1D31229A710623C7F8F83501F0C4BBD7F8F0350233C7F8F03507F5CA72D7F8F03513441B78312B04D1634B40
:40460000012283F8492003E0604B022283F84920D7F8F0350133C7F8F0355C4B082283F85A210123C7F8F43514E0D7F8F425D7F8F035134407F5CA72D15C544AD7F8F435DC
:40464000134403F5AC730A469A70D7F8F4350133C7F8F435D7F8F435082BE6D9D7F8F0350933C7F8F035494B082283F850210123C7F8F43514E0D7F8F425D7F8F035134483
:4046800007F5CA72D15C414AD7F8F435134403F5A8730A461A70D7F8F4350133C7F8F435D7F8F435082BE6D9D7F8F0350933C7F8F035364B062283F864210123C7F8F43507
:4046C00014E0D7F8F425D7F8F035134407F5CA72D15C2E4AD7F8F435134403F5B0730A461A71D7F8F4350133C7F8F435D7F8F435062BE6D9D7F8F0350833C7F8F03500233F
:40470000C7F8F43514E0D7F8F425D7F8F035134407F5CA72D15C1D4AD7F8F435134403F584730A46DA71D7F8F4350133C7F8F435D7F8F4353B2BE6D93B1D31229A710623B5
:40474000C7F8F83501F012BBD7F8F0350233C7F8F03507F5CA72D7F8F03513441B78312B16D10A4B012283F84920084B93F868321946064A0B469B000B44134403F20323F9
:4047800031221A7133E000BFDC84FF1F4082FF1FD44B022283F84920D24B93F868321946D04A0B469B000B44134403F2032330221A71CC4B93F868321A46CA4913469B00DC
:4047C00013449A0013440B4403F5B47301229A71C44B93F868321A46C24913469B0013449A0013440B4403F2691320229A71BD4B93F868321946BB4A0B469B000B441344CA
:4048000003F5007303221A71B64B93F868321946B44A0B469B000B44134403F2012330221A71B04B93F868321946AE4A0B469B000B44134403F2022330221A71D7F8F0355E
:404840000133C7F8F035A74B93F868321A46A54913469B0013449A0013440B4403F5DC7314225A700123C7F8F4351EE09D4B93F868321846D7F8F425D7F8F035134407F545
:40488000CA72D45C974903469B0003449A001344CA18D7F8F435134403F5DC7322465A70D7F8F4350133C7F8F435D7F8F435142BDCD9D7F8F0351533C7F8F035894B93F867
:4048C00068321946874A0B469B000B445B00134403F5107308221A700123C7F8F4351DE0804B93F868321946D7F8F425D7F8F035134407F5CA72D05C7A4A0B469B000B44E4
:404900005B001A44D7F8F435134403F5107302461A70D7F8F4350133C7F8F435D7F8F435082BDDD9D7F8F0350A33C7F8F0356D4B93F8683219466B4A0B469B000B44134495
:4049400003F504730322DA70664B93F86832194607F5CA72D7F8F03513441878614A0B469B000B44134403F211230246DA705D4B93F868321946D7F8F035013307F5CA728D
:40498000D05C584A0B469B000B44134403F212230246DA70534B93F868321946D7F8F035023307F5CA72D05C4E4A0B469B000B44134403F213230246DA703B1D31229A718F
:4049C0000623C7F8F83501F0D1B9D7F8F0350233C7F8F03507F5CA72D7F8F03513441B78312B04D13F4B012283F8492003E03D4B022283F84920D7F8F0350233C7F8F035C2
:404A00000023C7F8F43514E0D7F8F425D7F8F035134407F5CA72D15C324AD7F8F435134403F584730A46DA71D7F8F4350133C7F8F435D7F8F4353B2BE6D93B1D31229A71A3
:404A40000623C7F8F83501F091B9D7F8F0350233C7F8F03507F5CA72D7F8F03513441B78312B11D11F4B012283F849201E4B1B78DBB2002B0CBF01230023DBB21A461A4BFC
:404A80001A7017F007FC24E00123C7F8F43510E0D7F8F425154B13441B78D9B2144AD7F8F43513440A461A70D7F8F4350133C7F8F435D7F8F435142BEAD90D4B14221A70F8
:404AC0000A4B1B78DAB20B4B1A70064B022283F84920D7F8F0350233C7F8F0350023C7F8F4351EE04082FF1FF086FF1FBB830040BC84FF1FC58DFF1FD7F8F425D7F8F03557
:404B0000134407F5CA72D15CE14AD7F8F435134403F584730A46DA71D7F8F4350133C7F8F435D7F8F4353B2BE6D93B1D31229A710623C7F8F83501F019B9D7F8F0350233CD
:404B4000C7F8F03507F5CA72D7F8F03513441B78312B03D1CF4B01221A7008E0CD4B00221A70CD4B01221A60CC4B01221A6017F091FBCB4B1B78184615F072F90346002BB1
:404B800008D0C74B93F80031184615F069F90346002B50D10023C7F8F43548E00023C7F8F0353BE00023C7F8EC352EE0BC48D7F8F035D7F8F4151A461201D21A0B465B00B4
:404BC0000B441901C91A5318C218D7F8EC35134400225A70B248D7F8F035D7F8F4151A461201D21A0B465B000B441901C91A5318C218D7F8EC35134403F5807300225A7071
:404C0000D7F8EC350133C7F8EC35D7F8EC350D2BCCD9D7F8F0350133C7F8F035D7F8F035022BBFD9D7F8F4350133C7F8F435D7F8F435032BB2D918F049FA0023C7F8E835CF
:404C4000DBE1D7F8E82513469B001344DA00D31A05333A1D3B21D1549149D7F8E82513465B0013441A01D21A8B185B78C7F8F035D7F8F035002B0ED10123C7F8F035884981
:404C8000D7F8E82513465B0013441A01D21A8B18013330225A700023C7F8EC350D23C7F8F43561E0D7F8E82513469B001344DA00D21AD7F8F4351344591D7948D7F8E82568
:404CC00013465B0013441A01D21AD7F8F035134403445A783B1D5A54D7F8F035013BC7F8F035D7F8EC350133C7F8EC356D4B1B78DBB2013B1A46D7F8EC359A4212D1D7F82E
:404D0000F435013BC7F8F435D7F8E82513469B001344DA00D21AD7F8F435134405333A1D2C21D154D7F8F035002B18D112E0D7F8F435013BC7F8F435D7F8E82513469B0003
:404D40001344DA00D21AD7F8F435134405333A1D3021D154D7F8F435012BE8D808E0D7F8F435013BC7F8F435D7F8F435002B99D1D7F8E82513469B001344DA00D31A133319
:404D80003A1D3B21D1544649D7F8E82513465B0013441A01D21A8B180F335B78C7F8F035D7F8F035002B0ED10123C7F8F0353C49D7F8E82513465B0013441A01D21A8B18E6
:404DC000103330225A700023C7F8EC350D23C7F8F43570E0D7F8E82513469B001344DA00D21AD7F8F435134403F113012C48D7F8E82513465B0013441A01D21A0244D7F82E
:404E0000F03513440F335A783B1D5A54D7F8F035013BC7F8F035D7F8EC350133C7F8EC35214B1B78DBB21A46D7F8EC359A4212D1D7F8F435013BC7F8F435D7F8E8251346D8
:404E40009B001344DA00D21AD7F8F435134413333A1D2C21D154D7F8F035002B26D112E0D7F8F435013BC7F8F435D7F8E82513469B001344DA00D21AD7F8F4351344133376
:404E80003A1D3021D154D7F8F435012BE8D816E04082FF1FF086FF1F948DFF1FC08DFF1FDC84FF1FDD86FF1FC48DFF1FD7F8F435013BC7F8F435D7F8F435002B8AD1D7F856
:404EC000E82513469B001344DA00D31A21333A1D3B21D154E549D7F8E82513465B0013441A01D21A8B181E335B78C7F8F035D7F8F035002B0ED10123C7F8F035DB49D7F8A7
:404F0000E82513465B0013441A01D21A8B181F3330225A700023C7F8EC350623C7F8F43562E0D7F8E82513469B001344DA00D21AD7F8F435134403F12101CC48D7F8E825A9
:404F400013465B0013441A01D21A0244D7F8F03513441E335A783B1D5A54D7F8F035013BC7F8F035D7F8EC350133C7F8EC35C04B1B78DBB21A46D7F8EC359A4212D1D7F844
:404F8000F435013BC7F8F435D7F8E82513469B001344DA00D21AD7F8F435134421333A1D2C21D154D7F8F035002B18D112E0D7F8F435013BC7F8F435D7F8E82513469B0065
:404FC0001344DA00D21AD7F8F435134421333A1D3021D154D7F8F435012BE8D808E0D7F8F435013BC7F8F435D7F8F435002B98D1D7F8E8350133C7F8E835D7F8E835032B9A
:405000007FF61FAE0023C7F8E835DFE1D7F8E82513469B001344DA00D31A91333A1D3B21D1549249D7F8E82513465B0013441A01D21A8B1803F580735B78C7F8F035D7F808
:40504000F035002B0FD10123C7F8F0358749D7F8E82513465B0013441A01D21A8B1803F2011330225A700023C7F8EC350D23C7F8F43564E0D7F8E82513469B001344DA0012
:40508000D21AD7F8F435134403F191017748D7F8E82513465B0013441A01D21A0244D7F8F035134403F580735A783B1D5A54D7F8F035013BC7F8F035D7F8EC350133C7F837
:4050C000EC356C4B1B78DBB2013B1A46D7F8EC359A4212D1D7F8F435013BC7F8F435D7F8E82513469B001344DA00D21AD7F8F435134491333A1D2C21D154D7F8F035002B69
:4051000018D112E0D7F8F435013BC7F8F435D7F8E82513469B001344DA00D21AD7F8F435134491333A1D3021D154D7F8F435012BE8D808E0D7F8F435013BC7F8F435D7F8F4
:40514000F435002B96D1D7F8E82513469B001344DA00D31A9F333A1D3B21D1544349D7F8E82513465B0013441A01D21A8B1803F20F135B78C7F8F035D7F8F035002B0FD1F2
:405180000123C7F8F0353949D7F8E82513465B0013441A01D21A8B1803F5887330225A700023C7F8EC350D23C7F8F43569E0D7F8E82513469B001344DA00D21AD7F8F4357C
:4051C000134403F19F012948D7F8E82513465B0013441A01D21A0244D7F8F035134403F20F135A783B1D5A54D7F8F035013BC7F8F035D7F8EC350133C7F8EC351C4B1B78D3
:40520000DBB21A46D7F8EC359A4212D1D7F8F435013BC7F8F435D7F8E82513469B001344DA00D21AD7F8F43513449F333A1D2C21D154D7F8F035002B1ED112E0D7F8F435E7
:40524000013BC7F8F435D7F8E82513469B001344DA00D21AD7F8F43513449F333A1D3021D154D7F8F435012BE8D80EE0DC84FF1FC48DFF1FDD86FF1FD7F8F435013BC7F8FC
:40528000F435D7F8F435002B91D1D7F8E82513469B001344DA00D31AAD333A1D3B21D1545149D7F8E82513465B0013441A01D21A8B1803F58F735B78C7F8F035D7F8F035CA
:4052C000002B0FD10123C7F8F0354749D7F8E82513465B0013441A01D21A8B1803F21F1330225A700023C7F8EC350623C7F8F43563E0D7F8E82513469B001344DA00D21AF3
:40530000D7F8F435134403F1AD013748D7F8E82513465B0013441A01D21A0244D7F8F035134403F58F735A783B1D5A54D7F8F035013BC7F8F035D7F8EC350133C7F8EC3594
:405340002A4B1B78DBB21A46D7F8EC359A4212D1D7F8F435013BC7F8F435D7F8E82513469B001344DA00D21AD7F8F4351344AD333A1D2C21D154D7F8F035002B18D112E08E
:40538000D7F8F435013BC7F8F435D7F8E82513469B001344DA00D21AD7F8F4351344AD333A1D3021D154D7F8F435012BE8D808E0D7F8F435013BC7F8F435D7F8F435002BDD
:4053C00097D1D7F8E8350133C7F8E835D7F8E835032B7FF61BAE3B1D6C221A714FF48E73C7F8F83500F0C2BCDC84FF1FC48DFF1FD7F8F0350233C7F8F035D7F8F0350233BF
:4054000007F5CA72D35C1B01DAB2A34B9A70A24B9B78DBB2D9B2D7F8F035033307F5CA72D35CDBB203F00F03DBB20A461343DBB2DAB2994B9A70D7F8F035043307F5CA728D
:40544000D35C1B01DAB2944B5A70934B5B78DBB2D9B2D7F8F035053307F5CA72D35CDBB203F00F03DBB20A461343DBB2DAB28A4B5A70D7F8F035063307F5CA72D35C1B0123
:40548000DAB2854B1A70844B1B78DBB2D9B2D7F8F035073307F5CA72D35CDBB203F00F03DBB20A461343DBB2DAB27B4B1A70FDF71FF8D7F8F035083307F5CA72D35C1B010C
:4054C000DAB2764B9A70754B9B78DBB2D9B2D7F8F035093307F5CA72D35CDBB203F00F03DBB20A461343DBB2DAB26C4B9A70D7F8F0350A3307F5CA72D35C1B01DAB2674B42
:405500005A70664B5B78DBB2D9B2D7F8F0350B3307F5CA72D35CDBB203F00F03DBB20A461343DBB2DAB25D4B5A70D7F8F0350C3307F5CA72D35C1B01DAB2584B1A70574B0B
:405540001B78DBB2D9B2D7F8F0350D3307F5CA72D35CDBB203F00F03DBB20A461343DBB2DAB24E4B1A70FCF783FFD7F8F0350F33C7F8F03507F5CA72D7F8F03513441B783F
:4055800003F00703DAB2464B1A70D7F8F0350233C7F8F03507F5CA72D7F8F03513441B7803F00703DAB23F4B1A70D7F8F0350233C7F8F03507F5CA72D7F8F03513441B7864
:4055C00003F00703DAB2384B1A70D7F8F0350233C7F8F03507F5CA72D7F8F03513441B7803F00103DAB2314B1A70D7F8F0350233C7F8F03507F5CA72D7F8F03513441B7846
:4056000003F00703DAB22A4B1A70D7F8F0350233C7F8F03507F5CA72D7F8F03513441A78244B1A70D7F8F0350233C7F8F03507F5CA72D7F8F03513441A781E4B5A70D7F8A3
:40564000F0350233C7F8F0350023C7F8F43512E0D7F8F025D7F8F435134407F5CA72D15C154AD7F8F43513440A461A70D7F8F4350133C7F8F435D7F8F4350B2BE8D9D7F8FD
:40568000F0350C33C7F8F0350023C7F8EC3547E00123C7F8F4352BE0BC8DFF1F148BFF1FEE8AFF1FC48DFF1FDD86FF1F108BFF1FEA8AFF1FEC8AFF1FF08AFF1FD7F8F0255C
:4056C000D7F8F435134407F5CA72D05CBD49D7F8EC2513469B0013445B00D7F8F42513440B4402461A70D7F8F4350133C7F8F435D7F8F435082BE1D9B249D7F8EC251346DE
:405700009B0013445B000B4408221A70D7F8F0350933C7F8F035D7F8EC350133C7F8EC35D7F8EC35022BB3D9D7F8F035013307F5CA72D35C03F00103DBB23033DAB2A24B69
:405740001A70D7F8F035033307F5CA72D35C03F00103DBB23033DAB29B4B5A7016F09AFD0023C7F8EC354BE00123C7F8F4352DE09449D7F8EC2513469B0013445B000B4455
:405780001B781A46914B1B78DBB2D31A1A46D7F8F435D1188B48D7F8EC2513469B0013445B000B44034418788649D7F8EC2513469B0013445B00D7F8F42513440B44024622
:4057C0001A70D7F8F4350133C7F8F4357F4B1B78DBB21A46D7F8F4359A42C9D27B4B1B78D8B27849D7F8EC2513469B0013445B000B4402461A70D7F8EC350133C7F8EC3503
:40580000D7F8EC35022BAFD93B1D31229A710623C7F8F835AAE2D7F8F0350133C7F8F0350023C7F8E83532E00123C7F8F43518E0D7F8F425D7F8F035134407F5CA72D15CB3
:40584000634AD7F8E835DB001A44D7F8F435134403F5D8730A465A71D7F8F4350133C7F8F435D7F8F435062BE2D9594AD7F8E8353633DB00134406225A71D7F8F035073366
:40588000C7F8F035D7F8E8350133C7F8E835D7F8E835032BC8D94F4B012283F87A2216F035FF3B1D31229A710623C7F8F8355DE2D7F8F0350233C7F8F0350023C7F8F4351D
:4058C0002BE00023C7F8EC3519E007F5CA72D7F8F035134418784049D7F8F435DA00D7F8EC3513440B4402461A70D7F8F0350133C7F8F035D7F8EC350133C7F8EC35D7F8EC
:40590000EC35072BE1D9D7F8F0350133C7F8F035D7F8F4350133C7F8F435D7F8F435712BCFD916F0EFFF17F0D1FB3B1D31229A710623C7F8F83519E2D7F8F0350233C7F889
:40594000F03507F5CA72D7F8F03513441B78312B03D1224B01221A7002E0204B00221A703B1D31229A710623C7F8F835FEE1D7F8F0350233C7F8F03507F5CA72D7F8F035C6
:4059800013441A78134B83F86320124B93F86330562B04D10F4B012283F8622003E00D4B022283F86220D7F8F0350933C7F8F035D7F8F035C7F8EC35044B1B78DBB2C7F8E5
:4059C000F43531E0CC8AFF1FE086FF1FEE8AFF1FDC84FF1F4082FF1FF486FF1FC28AFF1F07F5CA72D7F8EC3513441978D44AD7F8F435134460330A461A7107F5CA72D7F88D
:405A0000EC3513441978CE4AD7F8F43513446A330A461A71D7F8EC35013BC7F8EC35D7F8F435013BC7F8F435D7F8F435002BD7D1C44B1B78DAB2C24B83F86420C14B1B78B2
:405A4000DAB2BF4B83F86E20D7F8F0350233C7F8F03507F5CA72D7F8F03513441B7803F00703DAB2B64B83F87820D7F8F0350133C7F8F0350123C7F8F43514E0D7F8F425D3
:405A8000D7F8F035134407F5CA72D15CAC4AD7F8F435134403F5B0730A461A71D7F8F4350133C7F8F435D7F8F435062BE6D9A44B062283F8642117F03DFF18F0A5F8A04B15
:405AC000312283F861209E4B342283F860209C4B002283F85F209A4B002283F8EA20984B002283F8F520964B002283F80021944B00221A70924B00225A7002202B210FF099
:405B0000F9FD022055210FF0AFFE8D4B2B2283F87A208D4B1C221A603B1D31229A710623C7F8F83522E1D7F8F0350233C7F8F03507F5CA72D7F8F03513441B78312B1BD128
:405B40007F4B382283F87A20022041210FF0D2FD02204B210FF088FE7C4817F0D9FE18F043F87B494FF000024FF00003C1E90023754B2C221A6006E0714B162283F87A2017
:405B8000714B01221A603B1D31229A710623C7F8F835EBE03B1D31229A710623C7F8F835E4E0674B93F87A30193B282B00F2D28001A252F823F000BF5D5C0000735C00004E
:405BC000555D0000555D0000555D0000555D0000555D0000555D0000895C0000555D0000555D00009F5C0000555D0000B55C0000555D0000555D0000CB5C0000555D000035
:405C0000555D0000555D0000555D0000555D0000555D0000555D0000E15C0000555D0000F75C0000555D0000155D0000555D0000555D0000555D0000555D0000555D000058
:405C4000555D0000555D0000555D0000555D0000555D0000555D00002B5D0000384B012283F80D213B1D31229A710623C7F8F8357BE0334B162283F87A203B1D31229A717A
:405C80000623C7F8F83570E02D4B222283F87A203B1D31229A710623C7F8F83565E0284B252283F87A203B1D31229A710623C7F8F8355AE0224B272283F87A203B1D312254
:405CC0009A710623C7F8F8354FE01D4B2A2283F87A203B1D31229A710623C7F8F83544E0174B322283F87A203B1D31229A710623C7F8F83539E0124B002283F87920104B00
:405D0000162283F87A203B1D31229A710623C7F8F8352AE00A4B362283F87A203B1D31229A710623C7F8F8351FE0054B422283F87A203B1D31229A710623C7F8F83514E02D
:405D40004082FF1FEE8AFF1FC08DFF1F15560100008BFF1F804B162283F87A203B1D31229A710623C7F8F83500BF00BF7B4B93F800213B1DDA7017F0A9F90323C7F8F43501
:405D80000CE03A1DD7F8F43513441B78184618F07DFAD7F8F4350133C7F8F435D7F8F425D7F8F8359A42ECD93B2018F06FFA262018F06CFA1CE0694B93F800213B1DDA70CA
:405DC0003B1D30229A710323C7F8F4350CE03A1DD7F8F43513441B78184618F057FAD7F8F4350133C7F8F435D7F8F435082BEED931E03B1D30229A710023C7F8F4350CE041
:405E00003A1DD7F8F43513441B78184618F03EFAD7F8F4350133C7F8F435D7F8F435082BEED94E4B93F800213B1DDA700323C7F8F4350CE03A1DD7F8F43513441B7818460D
:405E400018F024FAD7F8F4350133C7F8F435D7F8F435082BEED92A2018F018FA404B93F87A32012B27D10023C7F8F43515E03B4B1878D7F8F435DBB20133D9B2D7F8F4355A
:405E80001633DB00354A134405331A4614F0CCFBD7F8F4350133C7F8F435324B1B78DBB21A46D7F8F4359A42E1D82D4B002283F87A2217F00BF9284B93F87A32012B28D15C
:405EC0000023C7F8F43516E0244B93F80001D7F8F435DBB20133D9B2D7F8F4353633DB001E4A134405331A4614F09EFBD7F8F4350133C7F8F4351B4B1B78DBB21A46D7F869
:405F0000F4359A42E0D8144B002283F87A2217F0DDF8154B1B78DBB2012B16D1134B03221A60134B03221A60012037210FF0E2FB012057210FF098FC022037210FF0DAFBD4
:405F4000022057210FF090FCFEE7322017F044F807F20467BD4690BD4082FF1FDC84FF1F188BFF1FEA8AFF1FC28AFF1F948DFF1FC08DFF1F80B5E8B000AF0023A7F89E31FC
:405F8000DF4BD3E90023002B08BF332AC4F08E823B1D42221A703B1D47225A703B1D45229A70D84B1A783B1DDA70D74B93F87A30193B282B02F2088101A252F823F000BF9A
:405FC000656000004D630000C9810000C9810000C9810000C9810000C9810000C9810000156E0000C9810000C9810000E36E0000C981000099700000C9810000C981000021
:40600000C9810000C9810000C9810000C9810000C9810000C9810000C9810000C9810000F7710000C9810000F3720000C98100008D770000C981000013780000C98100008C
:40604000C9810000C9810000C9810000C9810000C9810000C9810000C9810000C981000065780000A84B93F80D31002B40F060813B1D6D221A713B1D3B225A71A24B93F891
:4060800063203B1D9A713B1D3B22DA719E4B93F86E30C7F894310823A7F89C3129E0B7F89C3107339849D7F894210A446A3211793A1DD154D7F89431013BC7F89431D7F896
:4060C0009431002B10DC0AE0B7F89C31013BA7F89C31B7F89C3107333A1D3021D154B7F89C31012BF0D808E0B7F89C31013BA7F89C31B7F89C31002BD1D13B1D3B221A742B
:40610000814B93F878303033DAB23B1D5A743B1D3B229A747C4B93F8A430C7F894310023A7F89A310D23A7F89C3141E0B7F89C3112337549D7F894210A44A03211793A1D90
:40614000D154D7F89431013BC7F89431B7F89A310133A7F89A31B7F89A216C4B1B78DBB2013B9A420AD1B7F89C31013BA7F89C31B7F89C3112333A1D2C21D154D7F8943118
:40618000002B10DC0AE0B7F89C31013BA7F89C31B7F89C3112333A1D3021D154B7F89C31012BF0D808E0B7F89C31013BA7F89C31B7F89C31002BB9D13B1D3B2283F820200F
:4061C000514B93F89630C7F894310023A7F89A310D23A7F89C3141E0B7F89C3120334A49D7F894210A44903291793A1DD154D7F89431013BC7F89431B7F89A310133A7F8C7
:406200009A31434B1B78DBB29BB2B7F89A219A420AD1B7F89C31013BA7F89C31B7F89C3120333A1D2C21D154D7F89431002B10DC0AE0B7F89C31013BA7F89C31B7F89C3186
:4062400020333A1D3021D154B7F89C31012BF0D808E0B7F89C31013BA7F89C31B7F89C31002BB9D13B1D3B2283F82E20264B93F8B230C7F894310023A7F89A310623A7F81C
:406280009C314CE0B7F89C312E331F49D7F894210A44B03291783A1DD154D7F89431013BC7F89431B7F89A310133A7F89A31184B1B78DBB29BB2B7F89A219A420AD1B7F85B
:4062C0009C31013BA7F89C31B7F89C312E333A1D2C21D154D7F89431002B1BDC0AE0B7F89C31013BA7F89C31B7F89C312E333A1D3021D154B7F89C31012BF0D813E000BFF3
:40630000088BFF1FDC84FF1F188BFF1FDD86FF1FC48DFF1FB7F89C31013BA7F89C31B7F89C31002BAED13423A7F89E3101F05BBF3B1D61221A713B1D3B225A713B1D1922EA
:406340009A710623A7F89E3101F04DBF3B1D62221A713B1D3B225A71C74B93F860203B1D9A713B1D3B22DA71C34B93F863203B1D1A723B1D3B225A72BF4B93F86E30C7F8A4
:4063800094310823A7F89C3129E0B7F89C310933B949D7F894210A446A3211793A1DD154D7F89431013BC7F89431D7F89431002B10DC0AE0B7F89C31013BA7F89C31B7F88E
:4063C0009C3109333A1D3021D154B7F89C31012BF0D808E0B7F89C31013BA7F89C31B7F89C31002BD1D13B1D3B229A74A24B93F878303033DAB23B1DDA743B1D3B221A7546
:406400003B1D32225A753B1D30229A750023A7F89C311AE0B7F89C311733B7F89C2196490A4492F87E103A1DD154B7F89C311D33B7F89C2190490A4492F88A103A1DD154AD
:40644000B7F89C310133A7F89C31B7F89C31052BE0D93B1D3B2283F82320874B93F8A430C7F894310023A7F89A310D23A7F89C3141E0B7F89C3123337F49D7F894210A44BD
:40648000A03211793A1DD154D7F89431013BC7F89431B7F89A310133A7F89A31B7F89A21764B1B78DBB2013B9A420AD1B7F89C31013BA7F89C31B7F89C3123333A1D2C21C0
:4064C000D154D7F89431002B10DC0AE0B7F89C31013BA7F89C31B7F89C3123333A1D3021D154B7F89C31012BF0D808E0B7F89C31013BA7F89C31B7F89C31002BB9D13B1D1A
:406500003B2283F831205C4B93F89630C7F894310023A7F89A310D23A7F89C3141E0B7F89C3131335449D7F894210A44903291793A1DD154D7F89431013BC7F89431B7F8D2
:406540009A310133A7F89A314D4B1B78DBB29BB2B7F89A219A420AD1B7F89C31013BA7F89C31B7F89C3131333A1D2C21D154D7F89431002B10DC0AE0B7F89C31013BA7F8D3
:406580009C31B7F89C3131333A1D3021D154B7F89C31012BF0D808E0B7F89C31013BA7F89C31B7F89C31002BB9D13B1D3B2283F83F20314B93F8B230C7F894310023A7F8F6
:4065C0009A310623A7F89C3141E0B7F89C313F332949D7F894210A44B03291783A1DD154D7F89431013BC7F89431B7F89A310133A7F89A31224B1B78DBB29BB2B7F89A21D1
:406600009A420AD1B7F89C31013BA7F89C31B7F89C313F333A1D2C21D154D7F89431002B10DC0AE0B7F89C31013BA7F89C31B7F89C313F333A1D3021D154B7F89C31012BAC
:40664000F0D808E0B7F89C31013BA7F89C31B7F89C31002BB9D13B1D3B2283F84620094B93F8E330C7F894310023A7F89A310823A7F89C314AE000BF188BFF1FDD86FF1FBA
:40668000C48DFF1FDC84FF1FB7F89C314633D949D7F894210A44E032D1783A1DD154D7F89431013BC7F89431B7F89A310133A7F89A31D14B1B78DBB29BB2B7F89A219A42F2
:4066C0000AD1B7F89C31013BA7F89C31B7F89C3146333A1D2C21D154D7F89431002B10DC0AE0B7F89C31013BA7F89C31B7F89C3146333A1D3021D154B7F89C31012BF0D8F2
:4067000008E0B7F89C31013BA7F89C31B7F89C31002BB9D13B1D3B2283F84F20B54B93F8D530C7F894310023A7F89A310823A7F89C3141E0B7F89C314F33AE49D7F89421AB
:406740000A44D03251793A1DD154D7F89431013BC7F89431B7F89A310133A7F89A31A74B1B78DBB29BB2B7F89A219A420AD1B7F89C31013BA7F89C31B7F89C314F333A1D1E
:406780002C21D154D7F89431002B10DC0AE0B7F89C31013BA7F89C31B7F89C314F333A1D3021D154B7F89C31012BF0D808E0B7F89C31013BA7F89C31B7F89C31002BB9D136
:4067C0003B1D3B2283F858208A4B93F8F130C7F894310023A7F89A310623A7F89C3141E0B7F89C3158338349D7F894210A44F03251783A1DD154D7F89431013BC7F8943149
:40680000B7F89A310133A7F89A317C4B1B78DBB29BB2B7F89A219A420AD1B7F89C31013BA7F89C31B7F89C3158333A1D2C21D154D7F89431002B10DC0AE0B7F89C31013BAA
:40684000A7F89C31B7F89C3158333A1D3021D154B7F89C31012BF0D808E0B7F89C31013BA7F89C31B7F89C31002BB9D13B1D3B2283F85F205F4B93F8FF203B1D83F86020D5
:406880003B1D3B2283F861205D4B93F8EA30C7F89431D7F89431002B06D10123C7F89431574B202283F8EB200A23A7F89C3129E0B7F89C3161335249D7F894210A44E83275
:4068C00091783A1DD154D7F89431013BC7F89431D7F89431002B10DC0AE0B7F89C31013BA7F89C31B7F89C3161333A1D2021D154B7F89C31012BF0D808E0B7F89C31013B29
:40690000A7F89C31B7F89C31002BD1D13B1D3B2283F86C203A4B93F8F530C7F89431D7F89431002B06D10123C7F89431344B302283F8F6200A23A7F89C3129E0B7F89C316F
:406940006C332F49D7F894210A44F03251793A1DD154D7F89431013BC7F89431D7F89431002B10DC0AE0B7F89C31013BA7F89C31B7F89C316C333A1D3021D154B7F89C3155
:40698000012BF0D808E0B7F89C31013BA7F89C31B7F89C31002BD1D13B1D3B2283F87720174B93F80031C7F89431D7F89431002B06D10123C7F89431114B302283F801219C
:4069C0000A23A7F89C3132E0B7F89C3177330C49D7F894210A4402F5807211783A1DD154D7F89431013BC7F89431D7F89431002B18DC12E0DC84FF1FDD86FF1FC48DFF1F4A
:406A0000188BFF1FB7F89C31013BA7F89C31B7F89C3177333A1D3021D154B7F89C31012BF0D808E0B7F89C31013BA7F89C31B7F89C31002BC8D13B1D3B2283F882203B1D98
:406A4000322283F883203B1D302283F884200023A7F89C311AE0B7F89C318533B7F89C21D8490A4492F884103A1DD154B7F89C318B33B7F89C21D3490A4492F890103A1D18
:406A8000D154B7F89C310133A7F89C31B7F89C31052BE0D93B1D3B2283F89120C94B93F85F3003F00703DBB23033DAB23B1D83F892203B1D3B2283F89320C24B1B7803F0AD
:406AC0000703DBB23033DAB23B1D83F894203B1D3B2283F89520BB4B5B78C7F89431D7F89431002B05D10123C7F89431B54B20229A701423A7F89C3128E0B7F89C319533CF
:406B0000B049D7F894210A4451783A1DD154D7F89431013BC7F89431D7F89431002B10DC0AE0B7F89C31013BA7F89C31B7F89C3195333A1D2021D154B7F89C31012BF0D8C7
:406B400008E0B7F89C31013BA7F89C31B7F89C31002BD2D13B1D3B2283F8AA209A4B1B78DAB23B1D83F8AB203B1D3B2283F8AC20964B1B78DBB2C7F89431D7F89431002BE3
:406B800005D10123C7F89431904B20225A701423A7F89C3129E0B7F89C31AC338B49D7F894210A441278D1B23A1DD154D7F89431013BC7F89431D7F89431002B10DC0AE051
:406BC000B7F89C31013BA7F89C31B7F89C31AC333A1D3021D154B7F89C31012BF0D808E0B7F89C31013BA7F89C31B7F89C31002BD1D13B1D3B2283F8C120724B93F8CE302D
:406C0000C7F894310023A7F89A310D23A7F89C3141E0B7F89C31C1336A49D7F894210A44C83291793A1DD154D7F89431013BC7F89431B7F89A310133A7F89A31B7F89A213B
:406C4000634B1B78DBB2013B9A420AD1B7F89C31013BA7F89C31B7F89C31C1333A1D2C21D154D7F89431002B10DC0AE0B7F89C31013BA7F89C31B7F89C31C1333A1D302125
:406C8000D154B7F89C31012BF0D808E0B7F89C31013BA7F89C31B7F89C31002BB9D13B1D3B2283F8CF20474B93F8C030C7F894310023A7F89A310D23A7F89C3141E0B7F859
:406CC0009C31CF333F49D7F894210A44C03211783A1DD154D7F89431013BC7F89431B7F89A310133A7F89A313A4B1B78DBB29BB2B7F89A219A420AD1B7F89C31013BA7F89E
:406D00009C31B7F89C31CF333A1D2C21D154D7F89431002B10DC0AE0B7F89C31013BA7F89C31B7F89C31CF333A1D3021D154B7F89C31012BF0D808E0B7F89C31013BA7F88C
:406D40009C31B7F89C31002BB9D13B1D3B2283F8DD201C4B93F8DC30C7F894310023A7F89A310623A7F89C314BE0B7F89C31DD331449D7F894210A44D83211793A1DD1544E
:406D8000D7F89431013BC7F89431B7F89A310133A7F89A310F4B1B78DBB29BB2B7F89A219A420AD1B7F89C31013BA7F89C31B7F89C31DD333A1D2C21D154D7F89431002B47
:406DC0001ADC14E0188BFF1FC58DFF1FBC84FF1FDD86FF1FC48DFF1FB7F89C31013BA7F89C31B7F89C31DD333A1D3021D154B7F89C31012BF0D808E0B7F89C31013BA7F8FE
:406E00009C31B7F89C31002BAFD1E323A7F89E3101F0E9B93B1D64221A713B1D3B225A71CD4BDB7EC7F894310823A7F89C3129E0B7F89C310533C849D7F894210A441832F8
:406E4000D1783A1DD154D7F89431013BC7F89431D7F89431002B10DC0AE0B7F89C31013BA7F89C31B7F89C3105333A1D3021D154B7F89C31012BF0D808E0B7F89C31013BAF
:406E8000A7F89C31B7F89C31002BD1D13B1D3B229A73B14B9B7EB14AA2FB0323DB08DBB23033DAB23B1DDA73AB4B9A7EAB4BA3FB0213D9080B469B000B445B00D31ADBB2DC
:406EC0003033DAB23B1D1A743B1D3B225A74A24B93F861203B1D9A741223A7F89E3101F082B93B1D65221A713B1D3B225A719A4BDB7EC7F894310823A7F89C3129E0B7F811
:406F00009C3105339449D7F894210A441832D1783A1DD154D7F89431013BC7F89431D7F89431002B10DC0AE0B7F89C31013BA7F89C31B7F89C3105333A1D3021D154B7F851
:406F40009C31012BF0D808E0B7F89C31013BA7F89C31B7F89C31002BD1D13B1D3B229A737D4B9B7E7D4AA2FB0323DB08DBB23033DAB23B1DDA73784B9A7E784BA3FB021379
:406F8000D9080B469B000B445B00D31ADBB23033DAB23B1D1A743B1D3B225A746E4B93F861203B1D9A743B1D3B22DA746A4B93F82530C7F894310823A7F89C3129E0B7F8F2
:406FC0009C3113336449D7F894210A44203251793A1DD154D7F89431013BC7F89431D7F89431002B10DC0AE0B7F89C31013BA7F89C31B7F89C3113333A1D3021D154B7F81C
:407000009C31012BF0D808E0B7F89C31013BA7F89C31B7F89C31002BD1D13B1D3B221A774D4B93F82F30C7F894311423A7F89C3129E0B7F89C311C334749D7F894210A4415
:407040002832D1793A1DD154D7F89431013BC7F89431D7F89431002B10DC0AE0B7F89C31013BA7F89C31B7F89C311C333A1D2021D154B7F89C31012BF0D808E0B7F89C3187
:40708000013BA7F89C31B7F89C31002BD1D13023A7F89E3101F0A7B83B1D66221A713B1D3B225A712C4B93F8F530C7F894312A4B93F8F530C7F89431D7F89431002B06D1F9
:4070C0000123C7F89431244B302283F8F6200A23A7F89C3129E0B7F89C3105331E49D7F894210A44F03251793A1DD154D7F89431013BC7F89431D7F89431002B10DC0AE0B6
:40710000B7F89C31013BA7F89C31B7F89C3105333A1D3021D154B7F89C31012BF0D808E0B7F89C31013BA7F89C31B7F89C31002BD1D13B1D3B221A74074B1A783B1D5A7498
:407140003B1D3B229A74044B5B78C7F894311423A7F89C312DE000BF188BFF1FCDCCCCCCB7F89C311233D849D7F894210A4451783A1DD154D7F89431013BC7F89431D7F829
:407180009431002B10DC0AE0B7F89C31013BA7F89C31B7F89C3112333A1D2021D154B7F89C31012BF0D808E0B7F89C31013BA7F89C31B7F89C31002BD2D13B1D3B2283F871
:4071C0002720C14B93F861203B1D83F828203B1D3B2283F82920BC4B93F8783003F00703DBB23033DAB23B1D83F82A202A23A7F89E3100F0F8BF3B1D67221A713B1D3B2249
:407200005A71B14B93F868321A46AF4913469B0013449A0013440B4403F5B4739B79C7F89431A94B93F868321A46A74913469B0013449A0013440B4403F5B4739B79C7F8E2
