:4000000000800020110000009DB801009DB8010080B500AF024A034B1B6813601BF06CFCBC760040FA46004010B5054C237833B9044B13B10448AFF300800123237010BDE8
:40004000D881FF1F000000000C200200084B10B51BB108480849AFF300800848036803B910BD074B002BFBD0BDE81040184700BF000000000C200200DC81FF1F0881FF1F45
:400080000000000080B584B000AF0346FB71FB79012B29D100201CF0E7FB4FF4FA701BF011FF01201CF0E0FB05201BF00BFF1CF0F5FB0346002B01D100233EE041201BF0D2
:4000C00001FF1CF0EBFB0346002B0CBF01230023DBB2FB73F0201BF0F5FEFB7B002B01D001232AE0002328E000201CF0E5FB4FF4FA701BF0E7FE01201CF0DEFB05201BF0D5
:40010000E1FE1CF0F7FB0346002B01D1002314E041201BF0D7FE1CF0EDFB0346002B0CBF01230023DBB2FB73F0201BF0CBFEFB7B002B01D0012300E0002318461037BD46AA
:4001400080BD00BF80B584B000AF03460A46FB711346BB71FB79012B3BD10023FB7333E000201CF081FB0A201BF0ACFEBA79FB7B42FA03F303F00103002B0CD001201CF004
:4001800073FB0A201BF09EFE1CF088FB0346002B0ED1002358E000201CF066FB0A201BF091FE1CF07BFB0346002B01D000234BE032201BF087FE01201CF056FB32201BF0A0
:4001C00081FEFB7B0133FB73FB7B072BC8D901233AE00023FB7333E000201CF06DFB0A201BF070FEBA79FB7B42FA03F303F00103002B0CD001201CF05FFB0A201BF062FE11
:400200001CF078FB0346002B0ED100231CE000201CF052FB0A201BF055FE1CF06BFB0346002B01D000230FE032201BF04BFE01201CF042FB32201BF045FEFB7B0133FB733B
:40024000FB7B072BC8D9012318461037BD4680BD80B584B000AF0346FB710023BB73FB79012B25D10023FB731DE000201CF0FCFA0E201BF027FE01201CF0F6FA07201BF01B
:4002800021FE1CF00BFB03461A46FB7B02FA03F3DAB2BB7B1343DBB2BB7364201BF012FEFB7B0133FB73FB7B072BDED9BB7B24E00023FB731DE000201CF0FEFA0E201BF0EE
:4002C00001FE01201CF0F8FA07201BF0FBFD1CF011FB03461A46FB7B02FA03F3DAB2BB7B1343DBB2BB7364201BF0ECFDFB7B0133FB73FB7B072BDED9BB7B18461037BD46ED
:4003000080BD00BF80B485B000AF03460A46FB711346BB71FA79BB795340FB710023FB6012E0FB7903F00103002B07D0FB795B08DBB283F07303DB43FB7102E0FB795B080C
:40034000FB71FB680133FB60FB68072BE9D9FB7918461437BD465DF8047B704780B582B000AF00237B6038E01CF0B0F9682000211CF0A4F80346FB70FB78002B28D17B68BD
:40038000DBB218461CF024F90346FB70FB78002B01D0002325E01CF0EFF80A201BF070FD682001211CF08AF80346FB70FB78002B0CD100201CF04CF9034619460B4A7B6891
:4003C00013440A461A701CF0D7F803E0002308E0002306E07B6801337B607B68022BC3D9012318460837BD4680BD00BF2C8BFF1F90B583B000AF04237B6037E01CF066F91C
:40040000682000211CF05AF80346FB70FB78002B27D17B68DBB218461CF0DAF80346FB70FB78002B01D0002324E01CF0A5F80A201BF026FD682001211CF040F80346FB70D2
:40044000FB78002B0BD17B681C1F00201CF000F903461A46094B1A551CF08EF803E0002308E0002306E07B6801337B607B68062BC4D9012318460C37BD4690BDF08DFF1F77
:4004800080B584B000AF00233B711C4B1B78DBB27B711A4B5B78DBB2BB71184B9B78DBB2FB711CF013F9682000211CF007F80346FB72FB7A002B17D10023FB6010E03A1DB3
:4004C000FB6813441B7818461CF082F80346FB72FB7A002B01D000230BE0FB680133FB60FB68032BEBD901E0002302E01CF044F8012318461037BD4680BD00BF2C8BFF1F84
:4005000080B584B000AF04233B711C4B1B78DBB27B711A4B5B78DBB2BB71184B9B78DBB2FB711CF0D3F8682000211BF0C7FF0346FB72FB7A002B17D10023FB6010E03A1DA9
:40054000FB6813441B7818461CF042F80346FB72FB7A002B01D000230BE0FB680133FB60FB68032BEBD901E0002302E01CF004F8012318461037BD4680BD00BFF08DFF1FBD
:4005800080B582B000AF0346FB710B46BB801346BB71FA79BB881046194613F075FFFB79012B16D1BA791346DB009B1A1A46154B1A60154B00221A6014494FF000024FF0C7
:4005C0000003C1E9002312481CF09EF81CF04EFC15E0BA791346DB009B1A1A460D4B1A600D4B00221A600D494FF000024FF00003C1E900230A481CF0DFF81CF097FA0837EB
:40060000BD4680BDEC8DFF1FC88DFF1F0087FF1FF5420100F484FF1F008EFF1F188BFF1F81430100F0B583B000AF62B61DF00AFB1DF0A0FA1DF098FE1DF02CFE1CF0B0FDE0
:400640001CF044FD1DF0AAFC1DF03EFC1DF010F91CF08CFF1BF046FD1CF00AFFB7481CF059F91CF045FBB6481CF0A2F91CF0E0FCB4494FF000024FF00003C1E900234FF45D
:400680007A701BF0FDFB0023BB711DE00023FB7114E0B979FA79F879BB79DB00034403F1804303F500431B78DCB2A748CB001344034422461A70FB790133FB71FB79072BFB
:4006C000E7D9BB790133BB71BB79712BDED90120372113F0D9FE0120572113F08FFF0220372113F0D1FE0220572113F087FF974B1B78DBB203F00703DAB2954B1A70954B5E
:400700001B78DBB2944AA2FB0323DB08DBB203F00703DAB2914B1A708E4B1B78DAB28E4BA3FB0213D9080B469B000B445B00D31ADBB203F00703DAB2894B1A70894B1B78D6
:40074000DBB203F00103DAB2874B1A70874B1B78DBB203F00703DAB2854B1A70854B1B78DAB2854B1A70854B1B78DAB2824B5A700023BB710023FB714CE0BA79F979804BEF
:400780000B441B78DBB27F49A1FB03135B09DBB203F00303DBB23033D9B27B4B9954BB79581CFA79764B13441B78DBB26A4AA2FB0323DB08DAB2684BA3FB0213D9080B4667
:4007C0009B000B445B00D31ADBB203F00F03DBB23033DAB26C4B1A54BB79981CFA79684B13441B78DAB25C4BA3FB0213D9080B469B000B445B00D31ADBB203F00F03DBB233
:400800003033DAB2604B1A54BB790333BB71FB790133FB71FB79032BAFD95C4B1B78DBB203F00103DAB25A4B1A705A4B00221A70594B1B78DAB2594B1A70594B14221A70BD
:400840000123FB710AE0FA79F979534B0B441B78D9B2534B9954FB790133FB71FB79142BF1D940F2CF333B600023BB7127E00123FB7114E0B979FA79F8793B68034403F155
:40088000804303F500431B78DCB24648CB0003441344B03322465A71FB790133FB71FB79062BE7D9BB793F4A1633DB00134406225A713B6806333B60BB790133BB71BB7929
:4008C000032BD4D940F2E7333B600023BB7128E00123FB7115E0B979FA79F8793B68034403F1804303F500431B78DCB22D48CB000344134403F5D87322465A71FB7901334B
:40090000FB71FB79062BE6D9BB79264A3633DB00134406225A713B6806333B60BB790133BB71BB79032BD3D940F28F333B600023BB7162E00123FB714DE000BF0D440100AE
:400940002D440100208BFF1F0C87FF1FB0830040068BFF1FB1830040CDCCCCCC268EFF1FF986FF1FB2830040288BFF1FB3830040038BFF1FB4830040048BFF1FB583004051
:40098000B68300401F85EB51088BFF1FBA8300400887FF1F028BFF1FBB830040278EFF1FD884FF1FF884FF1FBA79F979F8793B68034403F1804303F500431B78DCB259483F
:4009C00013469B0013445B000B44034422461A70FB790133FB71FB79082BE5D9BA79514913469B0013445B000B4408221A703B6808333B60BB790133BB71BB79022B99D9FA
:400A00000023BB713DE00123FB7125E0BA79FC79B979FD79B879434E03469B0003445B0033441B781846404B1B78DBB2C31AE8183C4D0B469B000B445B0003442B441878C8
:400A4000384913469B0013445B0023440B4402461A70FB790133FB71334B1B78DBB2FA799A42D3D9BA79304B1B78D8B22D4913469B0013445B000B4402461A70BB790133AA
:400A8000BB71BB79022BBED9284B1B78DBB203F00103DBB23033DAB2254B1A70254B1B78DBB203F00103DBB23033DAB2204B5A700023FB710BE0FB795A1CF9791E4B0B444C
:400AC0001B78D9B21D4B9954FB790133FB71FB79032BF0D91A4B162283F89420194B162283F89420164B002283F89520154B002283F89520124B002283F89422114B0022DA
:400B000083F89422104B00221A70104B01221A600F4B01221A600F4B00221A700C37BD46F0BD00BFE48AFF1F068BFF1FA8830040FC86FF1FA9830040AA830040DC8AFF1F33
:400B4000308BFF1F4082FF1FDA8AFF1FC88DFF1F008EFF1F048EFF1F80B582B000AF0023FB718DE017F0EEFF0346012B15D0022B24D0002B00D083E001202C2113F084FC9B
:400B80000120512113F03AFD02202C2113F07CFC0220512113F032FD72E001202C2113F073FC0120512113F029FD02202C2113F06BFC0220512113F021FD61E064201BF06C
:400BC0005FF9334B1B78184617F09AFF0346062B45D12F4B93F80031184617F091FF0346062B2BD10023BB711FE0294B1878BB790133D9B2BB791633DB00254A13440533C2
:400C00001A4618F06DFC224B93F80001BB790133D9B2BB793633DB001D4A134405331A4618F05EFCBB790133BB711A4B1B78DBB2BA799A42D9D30223FB7120E001202C21F4
:400C400013F022FC0120512113F0D8FC02202C2113F01AFC0220512113F0D0FC0FE001202C2113F011FC0120512113F0C7FC02202C2113F009FC0220512113F0BFFC00BFB0
:400C8000FB79002B3FF46EAF0837BD4680BD00BFF884FF1F038BFF1F90B5ADF2046D00AF0023C7F8F0351CF0D7FA0346002B03F049821CF0D1FA0346C7F8E43532201BF052
:400CC000DFF81CF0C9FA0346C7F8E035D7F8E425D7F8E0359A4243F035820023C7F8FC350FE01CF075FA0346194607F5CA72D7F8FC3513440A461A70D7F8FC350133C7F82E
:400D0000FC351CF0A9FA0346002BEAD11CF0E6FA1BF030F93B1D42221A703B1D47225A703B1D45229A70B34B1A783B1DDA703B1D63221A713B1D3B225A713B1D3B22DA71D0
:400D40003B1D26221A7207F5CA731B784D2B43F04A8107F5CA735B78552B43F0448107F5CA739B78582B43F03E81D7F8FC35013B07F5CA72D35C2A2B43F0358107F5CA73A6
:400D8000DA789C4B1B789A4241F0B48307F5CA731B79413B182B01F28D8301A252F823F0050E00007F0E0000AB0E0000C70F0000051200006712000025130000C11B0000C1
:400DC000071F00009B1F00001F20000045200000C3210000212200002F220000BB220000B5240000B5240000B5240000B5240000B5240000B5240000B5240000B524000052
:400E0000E122000007F5CA739B79312B2BD17A4B082283F83F200123C7F8F43511E0D7F8F435073307F5CA72D15C734AD7F8F435134438330A46DA71D7F8F4350133C7F8B0
:400E4000F435D7F8F435082BE9D907F5CA735B7C03F00103DAB2684B83F86220664B012283F8632003E0644B022283F863203B1D31229A710623C7F8F83501F01BBB07F505
:400E8000CA739B79312B04D15B4B012283F8632003E0594B022283F863203B1D31229A710623C7F8F83501F005BB07F5CA739B79312B04D1504B012283F8632003E04E4B0E
:400EC000022283F863204C4B082283F874210123C7F8F43512E0D7F8F435073307F5CA72D15C454AD7F8F435134403F5B8730A461A71D7F8F4350133C7F8F435D7F8F43582
:400F0000082BE8D93C4B082283F86A210123C7F8F43512E0D7F8F435103307F5CA72D15C354AD7F8F435134403F5B4730A469A70D7F8F4350133C7F8F435D7F8F435082BE2
:400F4000E8D92D4B062283F87E210123C7F8F43512E0D7F8F435193307F5CA72D15C264AD7F8F435134403F5BC730A469A71D7F8F4350133C7F8F435D7F8F435062BE8D910
:400F80000023C7F8F43512E0D7F8F435213307F5CA72D15C184AD7F8F435134403F594730A465A70D7F8F4350133C7F8F435D7F8F4353B2BE8D93B1D31229A710623C7F8E8
:400FC000F83501F077BA07F5CA739B79312B15D1094B012283F86320074B93F882321946054A0B469B000B44134403F21B2331229A7132E0F884FF1F308BFF1FCE4B02227A
:4010000083F86320CC4B93F882321946CA4A0B469B000B44134403F21B2330229A71C64B93F882321A46C44913469B0013449A0013440B4403F5C47301221A70BE4B93F80F
:4010400082321A46BC4913469B0013449A0013440B4403F2891320221A70B74B93F882321946B54A0B469B000B44134403F5067303229A71B04B93F882321946AE4A0B46BB
:401080009B000B44134403F2192330229A71AA4B93F882321946A84A0B469B000B44134403F21A2330229A71A34B93F882321A46A14913469B0013449A0013440B4403F5C1
:4010C000E8731422DA700123C7F8F4351CE09A4B93F882321846D7F8F435073307F5CA72D45C954903469B0003449A001344CA18D7F8F435134403F5E8732246DA70D7F8F2
:40110000F4350133C7F8F435D7F8F435142BDED9894B93F882321946874A0B469B000B445B00134403F5167308229A700123C7F8F4351BE0804B93F882321946D7F8F4352F
:401140001C3307F5CA72D05C7B4A0B469B000B445B001A44D7F8F435134403F5167302469A70D7F8F4350133C7F8F435D7F8F435082BDFD9704B93F8823219466E4A0B4688
:401180009B000B44134403F50A7303225A716A4B93F88232194607F5CA7393F82600664A0B469B000B44134403F2292302465A71614B93F88232194607F5CA7393F8270081
:4011C0005D4A0B469B000B44134403F22A2302465A71594B93F88232194607F5CA7393F82800554A0B469B000B44134403F22B2302465A713B1D31229A710623C7F8F835E1
:4012000001F058B907F5CA739B79312B04D14A4B012283F8632003E0474B022283F863200023C7F8F43512E0D7F8F435083307F5CA72D15C404AD7F8F435134403F5947374
:401240000A465A70D7F8F4350133C7F8F435D7F8F4353B2BE8D93B1D31229A710623C7F8F83501F027B907F5CA739B79312B11D1314B012283F86320304B1B78DBB2002B97
:401280000CBF01230023DBB21A462C4B1A7019F05FFF24E00123C7F8F43510E0D7F8F425274B13441B78D9B2264AD7F8F43513440A461A70D7F8F4350133C7F8F435D7F87C
:4012C000F435142BEAD91F4B14221A701C4B1B78DAB21D4B1A70184B022283F863200023C7F8F43512E0D7F8F435083307F5CA72D15C114AD7F8F435134403F594730A460E
:401300005A70D7F8F4350133C7F8F435D7F8F4353B2BE8D93B1D31229A710623C7F8F83501F0C8B807F5CA739B79312B0ED1034B01221A700DE000BF308BFF1F0887FF1FBF
:40134000BB830040D884FF1F278EFF1FC94B00221A7019F0FDFEC84B1B78184617F0DCFC0346002B08D0C44B93F80031184617F0D3FC0346002B50D10023C7F8F43548E0E8
:401380000023C7F8F0353BE00023C7F8EC352EE0B948D7F8F035D7F8F4151A461201D21A0B465B000B441901C91A5318C218D7F8EC35134400225A70AF48D7F8F035D7F8A4
:4013C000F4151A461201D21A0B465B000B441901C91A5318C218D7F8EC35134403F5807300225A70D7F8EC350133C7F8EC35D7F8EC350D2BCCD9D7F8F0350133C7F8F0354D
:40140000D7F8F035022BBFD9D7F8F4350133C7F8F435D7F8F435032BB2D91AF0ABFD0023C7F8E835D5E1D7F8E82513469B001344DA00D31A05333A1D3B21D1548E49D7F823
:40144000E82513465B0013441A01D21A8B185B78C7F8F035D7F8F035002B0ED10123C7F8F0358549D7F8E82513465B0013441A01D21A8B18013330225A700023C7F8EC353B
:401480000D23C7F8F43561E0D7F8E82513469B001344DA00D21AD7F8F4351344591D7648D7F8E82513465B0013441A01D21AD7F8F035134403445A783B1D5A54D7F8F03517
:4014C000013BC7F8F035D7F8EC350133C7F8EC356A4B1B78DBB2013B1A46D7F8EC359A4212D1D7F8F435013BC7F8F435D7F8E82513469B001344DA00D21AD7F8F435134450
:4015000005333A1D2C21D154D7F8F035002B18D112E0D7F8F435013BC7F8F435D7F8E82513469B001344DA00D21AD7F8F435134405333A1D3021D154D7F8F435012BE8D86F
:4015400008E0D7F8F435013BC7F8F435D7F8F435002B99D1D7F8E82513469B001344DA00D31A13333A1D3B21D1544349D7F8E82513465B0013441A01D21A8B180F335B789C
:40158000C7F8F035D7F8F035002B0ED10123C7F8F0353949D7F8E82513465B0013441A01D21A8B18103330225A700023C7F8EC350D23C7F8F4356AE0D7F8E82513469B009A
:4015C0001344DA00D21AD7F8F435134403F113012948D7F8E82513465B0013441A01D21A0244D7F8F03513440F335A783B1D5A54D7F8F035013BC7F8F035D7F8EC35013335
:40160000C7F8EC351E4B1B78DBB21A46D7F8EC359A4212D1D7F8F435013BC7F8F435D7F8E82513469B001344DA00D21AD7F8F435134413333A1D2C21D154D7F8F035002BAC
:4016400020D112E0D7F8F435013BC7F8F435D7F8E82513469B001344DA00D21AD7F8F435134413333A1D3021D154D7F8F435012BE8D810E00887FF1FF884FF1FF986FF1F64
:40168000268EFF1FD7F8F435013BC7F8F435D7F8F435002B90D1D7F8E82513469B001344DA00D31A21333A1D3B21D154E549D7F8E82513465B0013441A01D21A8B181E338E
:4016C0005B78C7F8F035D7F8F035002B0ED10123C7F8F035DB49D7F8E82513465B0013441A01D21A8B181F3330225A700023C7F8EC350623C7F8F43562E0D7F8E82513467F
:401700009B001344DA00D21AD7F8F435134403F12101CC48D7F8E82513465B0013441A01D21A0244D7F8F03513441E335A783B1D5A54D7F8F035013BC7F8F035D7F8EC35CC
:401740000133C7F8EC35C04B1B78DBB21A46D7F8EC359A4212D1D7F8F435013BC7F8F435D7F8E82513469B001344DA00D21AD7F8F435134421333A1D2C21D154D7F8F035B2
:40178000002B18D112E0D7F8F435013BC7F8F435D7F8E82513469B001344DA00D21AD7F8F435134421333A1D3021D154D7F8F435012BE8D808E0D7F8F435013BC7F8F435C2
:4017C000D7F8F435002B98D1D7F8E8350133C7F8E835D7F8E835032B7FF625AE0023C7F8E835DFE1D7F8E82513469B001344DA00D31A91333A1D3B21D1549249D7F8E825FF
:4018000013465B0013441A01D21A8B1803F580735B78C7F8F035D7F8F035002B0FD10123C7F8F0358749D7F8E82513465B0013441A01D21A8B1803F2011330225A700023A1
:40184000C7F8EC350D23C7F8F43564E0D7F8E82513469B001344DA00D21AD7F8F435134403F191017748D7F8E82513465B0013441A01D21A0244D7F8F035134403F5807341
:401880005A783B1D5A54D7F8F035013BC7F8F035D7F8EC350133C7F8EC356C4B1B78DBB2013B1A46D7F8EC359A4212D1D7F8F435013BC7F8F435D7F8E82513469B001344D3
:4018C000DA00D21AD7F8F435134491333A1D2C21D154D7F8F035002B18D112E0D7F8F435013BC7F8F435D7F8E82513469B001344DA00D21AD7F8F435134491333A1D302188
:40190000D154D7F8F435012BE8D808E0D7F8F435013BC7F8F435D7F8F435002B96D1D7F8E82513469B001344DA00D31A9F333A1D3B21D1544349D7F8E82513465B00134405
:401940001A01D21A8B1803F20F135B78C7F8F035D7F8F035002B0FD10123C7F8F0353949D7F8E82513465B0013441A01D21A8B1803F5887330225A700023C7F8EC350D2393
:40198000C7F8F43569E0D7F8E82513469B001344DA00D21AD7F8F435134403F19F012948D7F8E82513465B0013441A01D21A0244D7F8F035134403F20F135A783B1D5A5447
:4019C000D7F8F035013BC7F8F035D7F8EC350133C7F8EC351C4B1B78DBB21A46D7F8EC359A4212D1D7F8F435013BC7F8F435D7F8E82513469B001344DA00D21AD7F8F43538
:401A000013449F333A1D2C21D154D7F8F035002B1ED112E0D7F8F435013BC7F8F435D7F8E82513469B001344DA00D21AD7F8F43513449F333A1D3021D154D7F8F435012B99
:401A4000E8D80EE0F884FF1F268EFF1FF986FF1FD7F8F435013BC7F8F435D7F8F435002B91D1D7F8E82513469B001344DA00D31AAD333A1D3B21D154C449D7F8E825134626
:401A80005B0013441A01D21A8B1803F58F735B78C7F8F035D7F8F035002B0FD10123C7F8F035BA49D7F8E82513465B0013441A01D21A8B1803F21F1330225A700023C7F859
:401AC000EC350623C7F8F43563E0D7F8E82513469B001344DA00D21AD7F8F435134403F1AD01AA48D7F8E82513465B0013441A01D21A0244D7F8F035134403F58F735A7856
:401B00003B1D5A54D7F8F035013BC7F8F035D7F8EC350133C7F8EC359D4B1B78DBB21A46D7F8EC359A4212D1D7F8F435013BC7F8F435D7F8E82513469B001344DA00D21A67
:401B4000D7F8F4351344AD333A1D2C21D154D7F8F035002B18D112E0D7F8F435013BC7F8F435D7F8E82513469B001344DA00D21AD7F8F4351344AD333A1D3021D154D7F89F
:401B8000F435012BE8D808E0D7F8F435013BC7F8F435D7F8F435002B97D1D7F8E8350133C7F8E835D7F8E835032B7FF61BAE3B1D6C221A714FF48E73C7F8F83500F07ABC66
:401BC00007F5CA731B7A1B01DAB2724B9A70714B9B78DBB2DAB207F5CA735B7ADBB203F00F03DBB21343DBB2DAB26A4B9A7007F5CA739B7A1B01DAB2664B5A70654B5B7871
:401C0000DBB2DAB207F5CA73DB7ADBB203F00F03DBB21343DBB2DAB25E4B5A7007F5CA731B7B1B01DAB25B4B1A705A4B1B78DBB2DAB207F5CA735B7BDBB203F00F03DBB2D6
:401C40001343DBB2DAB2534B1A70FEF759FC07F5CA739B7B1B01DAB24F4B9A704E4B9B78DBB2DAB207F5CA73DB7BDBB203F00F03DBB21343DBB2DAB2474B9A7007F5CA7331
:401C80001B7C1B01DAB2444B5A70434B5B78DBB2DAB207F5CA735B7CDBB203F00F03DBB21343DBB2DAB23C4B5A7007F5CA739B7C1B01DAB2384B1A70374B1B78DBB2DAB2F0
:401CC00007F5CA73DB7CDBB203F00F03DBB21343DBB2DAB2304B1A70FEF7D2FB07F5CA735B7D03F00703DAB22C4B1A7007F5CA73DB7D03F00703DAB2254B1A7007F5CA7317
:401D00005B7E03F00703DAB2254B1A7007F5CA73DB7E03F00103DAB2224B1A7007F5CA735B7F03F00703DAB21F4B1A7007F5CA73DA7F1E4B1A7007F5CA7393F821201B4BBB
:401D40005A700023C7F8F43510E0D7F8F435233307F5CA72D15C164AD7F8F43513440A461A70D7F8F4350133C7F8F435D7F8F4350B2BEAD92F23C7F8E8350023C7F8EC352C
:401D80004AE00123C7F8F4352EE000BFF884FF1F268EFF1FF08DFF1F2C8BFF1F068BFF1FF986FF1F288BFF1F038BFF1F048BFF1F088BFF1FD7F8E825D7F8F435134407F5F6
:401DC000CA72D05CCE49D7F8EC2513469B0013445B00D7F8F42513440B4402461A70D7F8F4350133C7F8F435D7F8F435082BE1D9C349D7F8EC2513469B0013445B000B44A4
:401E000008221A70D7F8E8350933C7F8E835D7F8EC350133C7F8EC35D7F8EC35022BB0D907F5CA7393F84B3003F00103DBB23033DAB2B44B1A7007F5CA7393F84D3003F0D1
:401E40000103DBB23033DAB2AE4B5A7019F080F90023C7F8EC354BE00123C7F8F4352DE0A749D7F8EC2513469B0013445B000B441B781A46A44B1B78DBB2D31A1A46D7F873
:401E8000F435D1189E48D7F8EC2513469B0013445B000B44034418789949D7F8EC2513469B0013445B00D7F8F42513440B4402461A70D7F8F4350133C7F8F435924B1B7832
:401EC000DBB21A46D7F8F4359A42C9D28E4B1B78D8B28B49D7F8EC2513469B0013445B000B4402461A70D7F8EC350133C7F8EC35D7F8EC35022BAFD93B1D31229A7106238D
:401F0000C7F8F835D6E20523C7F8EC350023C7F8E83531E00123C7F8F43517E0D7F8F425D7F8EC35134407F5CA72D15C774AD7F8E835DB001A44D7F8F4351344B0330A46E6
:401F40005A71D7F8F4350133C7F8F435D7F8F435062BE3D96D4AD7F8E8351633DB00134406225A71D7F8EC350733C7F8EC35D7F8E8350133C7F8E835D7F8E835032BC9D9CA
:401F8000634B012283F8942219F030FB3B1D31229A710623C7F8F8358CE20623C7F8E8350023C7F8F4352BE00023C7F8EC3519E007F5CA72D7F8E835134418785549D7F823
:401FC000F435DA00D7F8EC3513440B4402461A70D7F8E8350133C7F8E835D7F8EC350133C7F8EC35D7F8EC35072BE1D9D7F8E8350133C7F8E835D7F8F4350133C7F8F4358A
:40200000D7F8F435712BCFD919F0ECFB19F0B2FF3B1D31229A710623C7F8F8354AE207F5CA739B79312B03D13B4B01221A7002E0394B01221A703B1D31229A710623C7F862
:40204000F83537E207F5CA739A79314B83F87D202F4B93F87D30562B04D12D4B012283F87C2003E02A4B022283F87C200F23C7F8EC35254B1B78DBB2C7F8F43523E007F564
:40208000CA72D7F8EC3513441978214AD7F8F435134478330A469A7107F5CA72D7F8EC35134419781A4AD7F8F435134482330A469A71D7F8EC35013BC7F8EC35D7F8F43575
:4020C000013BC7F8F435D7F8F435002BD7D10E4B1B78DAB20E4B83F87E200B4B1B78DAB20B4B83F8882007F5CA735B7C03F00703DAB2074B83F892200123C7F8F43520E0F5
:40210000E48AFF1FFC86FF1F068BFF1FF884FF1F308BFF1F0C87FF1FDA8AFF1FD7F8F435123307F5CA72D15CD44AD7F8F435134403F5BC730A469A71D7F8F4350133C7F8A2
:40214000F435D7F8F435062BE8D9CC4B062283F87E211AF0EBFA1AF099FEC84B312283F87B20C64B342283F87A20C44B002283F87920C24B002283F80421C04B002283F8AF
:402180000F21BE4B002283F81A21BC4B00221A70BA4B00225A7001202B2112F075F90120552112F02BFAB54B2B2283F89420B44B1C221A603B1D31229A710623C7F8F835D1
:4021C00078E107F5CA739B79312B1BD1AB4B382283F894200120412112F056F901204B2112F00CFAA7481AF08FFA1AF03FFEA6494FF000024FF00003C1E90023A04B2C22C8
:402200001A6006E09D4B162283F894209C4B01221A603B1D31229A710623C7F8F83549E13B1D31229A710623C7F8F83542E107F5CA739A79954B1A70954B14221A7001230E
:40224000C7F8F43510E0D7F8F435073307F5CA72D15C8F4AD7F8F43513440A461A70D7F8F4350133C7F8F435D7F8F435142BEAD9884B04221A700123C7F8F43510E0D7F891
:40228000F4351C3307F5CA72D15C824AD7F8F43513440A461A70D7F8F4350133C7F8F435D7F8F435042BEAD918F052FF3B1D31229A710623C7F8F835FCE007F5CA739B7901
:4022C000312B03D1744B01221A7002E0724B00221A703B1D31229A710623C7F8F835E9E0664B93F89430193B282B00F2D78001A252F823F099230000AF2300009D24000024
:402300009D2400009D2400009D2400009D2400009D240000C52300009D2400009D240000DB2300009D240000F12300009D2400009D240000072400009D2400009D2400006C
:402340009D2400009D2400009D2400009D2400009D2400001D2400009D240000332400009D240000512400009D2400009D2400009D2400009D2400009D2400009D24000083
:402380009D2400009D2400009D2400009D2400009D24000067240000384B012283F827213B1D31229A710623C7F8F83581E0334B162283F894203B1D31229A710623C7F8B5
:4023C000F83576E02D4B222283F894203B1D31229A710623C7F8F8356BE0284B252283F894203B1D31229A710623C7F8F83560E0224B272283F894203B1D31229A710623A1
:40240000C7F8F83555E01D4B2A2283F894203B1D31229A710623C7F8F8354AE0174B322283F894203B1D31229A710623C7F8F8353FE0124B002283F89320104B162283F819
:4024400094203B1D31229A710623C7F8F83530E00A4B362283F894203B1D31229A710623C7F8F83525E0054B422283F894203B1D31229A710623C7F8F8351AE0308BFF1FA0
:40248000C88DFF1FF54201000087FF1F278EFF1FD884FF1FDC8AFF1F048EFF1FDD4B162283F894203B1D31229A710623C7F8F83500BF00BF19F05EFD0023C7F8F4350CE018
:4024C0003A1DD7F8F43513441B7818461AF03EFFD7F8F4350133C7F8F435D7F8F425D7F8F8359A42ECD93B201AF030FF26201AF02DFF17E03B1D30229A710023C7F8F4359E
:402500000CE03A1DD7F8F43513441B7818461AF01DFFD7F8F4350133C7F8F435D7F8F435082BEED90023C7F8F03512E007F5CA72D7F8F03513441B78262B05D1D7F8F035C2
:402540000133C7F8F0350BE0D7F8F0350133C7F8F035D7F8FC355A1ED7F8F0359A42E5D23B1D63221A713B1D3B225A7107F5CA72D7F8F03513441A78A74B93F800319A42C6
:4025800041F01385D7F8F0350133C7F8F03507F5CA72D7F8F03513441B78413B182B01F2DF8401A252F823F00D260000B5260000F126000063280000DB2A00005B2B0000E0
:4025C0003F2C0000E93400000F390000A9390000313A0000673A00001F3C00008D3C00009B3C0000533D0000613F0000613F0000613F0000613F0000613F0000613F0000D2
:40260000613F0000613F0000893D0000D7F8F0350233C7F8F03507F5CA72D7F8F03513441B78312B3AD1D7F8F0350133C7F8F0357A4B082283F83F200123C7F8F43513E036
:40264000D7F8F425D7F8F035134407F5CA72D15C724AD7F8F435134438330A46DA71D7F8F4350133C7F8F435D7F8F435082BE7D9D7F8F0350A33C7F8F03507F5CA72D7F896
:40268000F03513441B7803F00103DAB2634B83F86220624B012283F8632003E05F4B022283F863203B1D31229A710623C7F8F83501F056BCD7F8F0350233C7F8F03507F589
:4026C000CA72D7F8F03513441B78312B04D1534B012283F8632003E0504B022283F863203B1D31229A710623C7F8F83501F038BCD7F8F0350233C7F8F03507F5CA72D7F86C
:40270000F03513441B78312B04D1444B012283F8632003E0414B022283F86320D7F8F0350133C7F8F0353D4B082283F874210123C7F8F43514E0D7F8F425D7F8F035134417
:4027400007F5CA72D15C354AD7F8F435134403F5B8730A461A71D7F8F4350133C7F8F435D7F8F435082BE6D9D7F8F0350933C7F8F0352A4B082283F86A210123C7F8F43565
:4027800014E0D7F8F425D7F8F035134407F5CA72D15C224AD7F8F435134403F5B4730A469A70D7F8F4350133C7F8F435D7F8F435082BE6D9D7F8F0350933C7F8F035174BE5
:4027C000062283F87E210123C7F8F43514E0D7F8F425D7F8F035134407F5CA72D15C0F4AD7F8F435134403F5BC730A469A71D7F8F4350133C7F8F435D7F8F435062BE6D9D9
:40280000D7F8F0350833C7F8F0350023C7F8F4351BE000BF308BFF1FF884FF1F4082FF1FD7F8F425D7F8F035134407F5CA72D15CDB4AD7F8F435134403F594730A465A7048
:40284000D7F8F4350133C7F8F435D7F8F4353B2BE6D93B1D31229A710623C7F8F83501F07FBBD7F8F0350233C7F8F03507F5CA72D7F8F03513441B78312B11D1C84B01229A
:4028800083F86320C64B93F882321946C44A0B469B000B44134403F21B2331229A712EE0BF4B022283F86320BD4B93F882321946BB4A0B469B000B44134403F21B2330223E
:4028C0009A71B74B93F882321A46B54913469B0013449A0013440B4403F5C47301221A70AF4B93F882321A46AD4913469B0013449A0013440B4403F2891320221A70A84B5D
:4029000093F882321946A64A0B469B000B44134403F5067303229A71A14B93F8823219469F4A0B469B000B44134403F2192330229A719B4B93F882321946994A0B469B00F0
:402940000B44134403F21A2330229A71D7F8F0350133C7F8F035924B93F882321A46904913469B0013449A0013440B4403F5E8731422DA700123C7F8F4351EE0884B93F8FB
:4029800082321846D7F8F425D7F8F035134407F5CA72D45C824903469B0003449A001344CA18D7F8F435134403F5E8732246DA70D7F8F4350133C7F8F435D7F8F435142B02
:4029C000DCD9D7F8F0351533C7F8F035744B93F882321946724A0B469B000B445B00134403F5167308229A700123C7F8F4351DE06B4B93F882321946D7F8F425D7F8F0350E
:402A0000134407F5CA72D05C654A0B469B000B445B001A44D7F8F435134403F5167302469A70D7F8F4350133C7F8F435D7F8F435082BDDD9D7F8F0350A33C7F8F035584B69
:402A400093F882321946564A0B469B000B44134403F50A7303225A71514B93F88232194607F5CA72D7F8F035134418784C4A0B469B000B44134403F2292302465A71484BC5
:402A800093F882321946D7F8F035013307F5CA72D05C434A0B469B000B44134403F22A2302465A713E4B93F882321946D7F8F035023307F5CA72D05C394A0B469B000B4406
:402AC000134403F22B2302465A713B1D31229A710623C7F8F83501F043BAD7F8F0350233C7F8F03507F5CA72D7F8F03513441B78312B04D12A4B012283F8632003E0284B30
:402B0000022283F86320D7F8F0350233C7F8F0350023C7F8F43514E0D7F8F425D7F8F035134407F5CA72D15C1D4AD7F8F435134403F594730A465A70D7F8F4350133C7F815
:402B4000F435D7F8F4353B2BE6D93B1D31229A710623C7F8F83501F003BAD7F8F0350233C7F8F03507F5CA72D7F8F03513441B78312B11D10A4B012283F86320094B1B78D8
:402B8000DBB2002B0CBF01230023DBB21A46054B1A7018F0DDFA28E00123C7F8F43514E04082FF1F0887FF1FD7F8F425C74B13441B78D9B2C64AD7F8F43513440A461A7068
:402BC000D7F8F4350133C7F8F435D7F8F435142BEAD9BF4B14221A70BC4B1B78DAB2BD4B1A70BD4B022283F86320D7F8F0350233C7F8F0350023C7F8F43514E0D7F8F42527
:402C0000D7F8F035134407F5CA72D15CB24AD7F8F435134403F594730A465A70D7F8F4350133C7F8F435D7F8F4353B2BE6D93B1D31229A710623C7F8F83501F091B9D7F87A
:402C4000F0350233C7F8F03507F5CA72D7F8F03513441B78312B03D1A04B01221A7002E09E4B00221A7018F073FA9D4B1B78184616F052F80346002B08D0994B93F8003137
:402C8000184616F049F80346002B50D10023C7F8F43548E00023C7F8F0353BE00023C7F8EC352EE08E48D7F8F035D7F8F4151A461201D21A0B465B000B441901C91A531810
:402CC000C218D7F8EC35134400225A708448D7F8F035D7F8F4151A461201D21A0B465B000B441901C91A5318C218D7F8EC35134403F5807300225A70D7F8EC350133C7F892
:402D0000EC35D7F8EC350D2BCCD9D7F8F0350133C7F8F035D7F8F035022BBFD9D7F8F4350133C7F8F435D7F8F435032BB2D919F021F90023C7F8E835DBE1D7F8E825134608
:402D40009B001344DA00D31A05333A1D3B21D1546349D7F8E82513465B0013441A01D21A8B185B78C7F8F035D7F8F035002B0ED10123C7F8F0355A49D7F8E82513465B005D
:402D800013441A01D21A8B18013330225A700023C7F8EC350D23C7F8F43561E0D7F8E82513469B001344DA00D21AD7F8F4351344591D4B48D7F8E82513465B0013441A011F
:402DC000D21AD7F8F035134403445A783B1D5A54D7F8F035013BC7F8F035D7F8EC350133C7F8EC353F4B1B78DBB2013B1A46D7F8EC359A4212D1D7F8F435013BC7F8F43554
:402E0000D7F8E82513469B001344DA00D21AD7F8F435134405333A1D2C21D154D7F8F035002B18D112E0D7F8F435013BC7F8F435D7F8E82513469B001344DA00D21AD7F883
:402E4000F435134405333A1D3021D154D7F8F435012BE8D808E0D7F8F435013BC7F8F435D7F8F435002B99D1D7F8E82513469B001344DA00D31A13333A1D3B21D1541849EB
:402E8000D7F8E82513465B0013441A01D21A8B180F335B78C7F8F035D7F8F035002B0ED10123C7F8F0350E49D7F8E82513465B0013441A01D21A8B18103330225A70002318
:402EC000C7F8EC350D23C7F8F43570E0BB830040D884FF1F278EFF1F4082FF1F0887FF1FF884FF1FF986FF1FD7F8E82513469B001344DA00D21AD7F8F435134403F11301B7
:402F0000CA48D7F8E82513465B0013441A01D21A0244D7F8F03513440F335A783B1D5A54D7F8F035013BC7F8F035D7F8EC350133C7F8EC35BE4B1B78DBB21A46D7F8EC3555
:402F40009A4212D1D7F8F435013BC7F8F435D7F8E82513469B001344DA00D21AD7F8F435134413333A1D2C21D154D7F8F035002B18D112E0D7F8F435013BC7F8F435D7F846
:402F8000E82513469B001344DA00D21AD7F8F435134413333A1D3021D154D7F8F435012BE8D808E0D7F8F435013BC7F8F435D7F8F435002B98D1D7F8E82513469B001344F6
:402FC000DA00D31A21333A1D3B21D1549749D7F8E82513465B0013441A01D21A8B181E335B78C7F8F035D7F8F035002B0ED10123C7F8F0358D49D7F8E82513465B001344A2
:403000001A01D21A8B181F3330225A700023C7F8EC350623C7F8F43562E0D7F8E82513469B001344DA00D21AD7F8F435134403F121017E48D7F8E82513465B0013441A0108
:40304000D21A0244D7F8F03513441E335A783B1D5A54D7F8F035013BC7F8F035D7F8EC350133C7F8EC35724B1B78DBB21A46D7F8EC359A4212D1D7F8F435013BC7F8F4358A
:40308000D7F8E82513469B001344DA00D21AD7F8F435134421333A1D2C21D154D7F8F035002B18D112E0D7F8F435013BC7F8F435D7F8E82513469B001344DA00D21AD7F8E5
:4030C000F435134421333A1D3021D154D7F8F435012BE8D808E0D7F8F435013BC7F8F435D7F8F435002B98D1D7F8E8350133C7F8E835D7F8E835032B7FF61FAE0023C7F881
:40310000E835DFE1D7F8E82513469B001344DA00D31A91333A1D3B21D1544449D7F8E82513465B0013441A01D21A8B1803F580735B78C7F8F035D7F8F035002B0FD1012345
:40314000C7F8F0353949D7F8E82513465B0013441A01D21A8B1803F2011330225A700023C7F8EC350D23C7F8F4356AE0D7F8E82513469B001344DA00D21AD7F8F435134492
:4031800003F191012948D7F8E82513465B0013441A01D21A0244D7F8F035134403F580735A783B1D5A54D7F8F035013BC7F8F035D7F8EC350133C7F8EC351E4B1B78DBB235
:4031C000013B1A46D7F8EC359A4212D1D7F8F435013BC7F8F435D7F8E82513469B001344DA00D21AD7F8F435134491333A1D2C21D154D7F8F035002B1ED112E0D7F8F435A7
:40320000013BC7F8F435D7F8E82513469B001344DA00D21AD7F8F435134491333A1D3021D154D7F8F435012BE8D80EE0F884FF1F268EFF1FF986FF1FD7F8F435013BC7F8CF
:40324000F435D7F8F435002B90D1D7F8E82513469B001344DA00D31A9F333A1D3B21D1549F49D7F8E82513465B0013441A01D21A8B1803F20F135B78C7F8F035D7F8F035CE
:40328000002B0FD10123C7F8F0359549D7F8E82513465B0013441A01D21A8B1803F5887330225A700023C7F8EC350D23C7F8F43563E0D7F8E82513469B001344DA00D21A32
:4032C000D7F8F435134403F19F018548D7F8E82513465B0013441A01D21A0244D7F8F035134403F20F135A783B1D5A54D7F8F035013BC7F8F035D7F8EC350133C7F8EC3598
:40330000784B1B78DBB21A46D7F8EC359A4212D1D7F8F435013BC7F8F435D7F8E82513469B001344DA00D21AD7F8F43513449F333A1D2C21D154D7F8F035002B18D112E0AE
:40334000D7F8F435013BC7F8F435D7F8E82513469B001344DA00D21AD7F8F43513449F333A1D3021D154D7F8F435012BE8D808E0D7F8F435013BC7F8F435D7F8F435002B4B
:4033800097D1D7F8E82513469B001344DA00D31AAD333A1D3B21D1545149D7F8E82513465B0013441A01D21A8B1803F58F735B78C7F8F035D7F8F035002B0FD10123C7F841
:4033C000F0354749D7F8E82513465B0013441A01D21A8B1803F21F1330225A700023C7F8EC350623C7F8F43563E0D7F8E82513469B001344DA00D21AD7F8F435134403F1BD
:40340000AD013748D7F8E82513465B0013441A01D21A0244D7F8F035134403F58F735A783B1D5A54D7F8F035013BC7F8F035D7F8EC350133C7F8EC352A4B1B78DBB21A4601
:40344000D7F8EC359A4212D1D7F8F435013BC7F8F435D7F8E82513469B001344DA00D21AD7F8F4351344AD333A1D2C21D154D7F8F035002B18D112E0D7F8F435013BC7F8AF
:40348000F435D7F8E82513469B001344DA00D21AD7F8F4351344AD333A1D3021D154D7F8F435012BE8D808E0D7F8F435013BC7F8F435D7F8F435002B97D1D7F8E835013367
:4034C000C7F8E835D7F8E835032B7FF61BAE3B1D6C221A714FF48E73C7F8F83500F040BDF884FF1F268EFF1FD7F8F0350233C7F8F035D7F8F035023307F5CA72D35C1B01E5
:40350000DAB2A34B9A70A24B9B78DBB2D9B2D7F8F035033307F5CA72D35CDBB203F00F03DBB20A461343DBB2DAB2994B9A70D7F8F035043307F5CA72D35C1B01DAB2944B79
:403540005A70934B5B78DBB2D9B2D7F8F035053307F5CA72D35CDBB203F00F03DBB20A461343DBB2DAB28A4B5A70D7F8F035063307F5CA72D35C1B01DAB2854B1A70844B43
:403580001B78DBB2D9B2D7F8F035073307F5CA72D35CDBB203F00F03DBB20A461343DBB2DAB27B4B1A70FCF7ABFFD7F8F035083307F5CA72D35C1B01DAB2764B9A70754B37
:4035C0009B78DBB2D9B2D7F8F035093307F5CA72D35CDBB203F00F03DBB20A461343DBB2DAB26C4B9A70D7F8F0350A3307F5CA72D35C1B01DAB2674B5A70664B5B78DBB29D
:40360000D9B2D7F8F0350B3307F5CA72D35CDBB203F00F03DBB20A461343DBB2DAB25D4B5A70D7F8F0350C3307F5CA72D35C1B01DAB2584B1A70574B1B78DBB2D9B2D7F88B
:40364000F0350D3307F5CA72D35CDBB203F00F03DBB20A461343DBB2DAB24E4B1A70FCF70FFFD7F8F0350F33C7F8F03507F5CA72D7F8F03513441B7803F00703DAB2464B32
:403680001A70D7F8F0350233C7F8F03507F5CA72D7F8F03513441B7803F00703DAB23F4B1A70D7F8F0350233C7F8F03507F5CA72D7F8F03513441B7803F00703DAB2384B91
:4036C0001A70D7F8F0350233C7F8F03507F5CA72D7F8F03513441B7803F00103DAB2314B1A70D7F8F0350233C7F8F03507F5CA72D7F8F03513441B7803F00703DAB22A4B73
:403700001A70D7F8F0350233C7F8F03507F5CA72D7F8F03513441A78244B1A70D7F8F0350233C7F8F03507F5CA72D7F8F03513441A781E4B5A70D7F8F0350233C7F8F03582
:403740000023C7F8F43512E0D7F8F025D7F8F435134407F5CA72D15C154AD7F8F43513440A461A70D7F8F4350133C7F8F435D7F8F4350B2BE8D9D7F8F0350C33C7F8F03512
:403780000023C7F8EC3547E00123C7F8F4352BE0F08DFF1F2C8BFF1F068BFF1F268EFF1FF986FF1F288BFF1F038BFF1F048BFF1F088BFF1FD7F8F025D7F8F435134407F530
:4037C000CA72D05CBD49D7F8EC2513469B0013445B00D7F8F42513440B4402461A70D7F8F4350133C7F8F435D7F8F435082BE1D9B249D7F8EC2513469B0013445B000B44AC
:4038000008221A70D7F8F0350933C7F8F035D7F8EC350133C7F8EC35D7F8EC35022BB3D9D7F8F035013307F5CA72D35C03F00103DBB23033DAB2A24B1A70D7F8F035033370
:4038400007F5CA72D35C03F00103DBB23033DAB29B4B5A7017F07CFC0023C7F8EC354BE00123C7F8F4352DE09449D7F8EC2513469B0013445B000B441B781A46914B1B78E4
:40388000DBB2D31A1A46D7F8F435D1188B48D7F8EC2513469B0013445B000B44034418788649D7F8EC2513469B0013445B00D7F8F42513440B4402461A70D7F8F4350133ED
:4038C000C7F8F4357F4B1B78DBB21A46D7F8F4359A42C9D27B4B1B78D8B27849D7F8EC2513469B0013445B000B4402461A70D7F8EC350133C7F8EC35D7F8EC35022BAFD933
:403900003B1D31229A710623C7F8F83528E3D7F8F0350133C7F8F0350023C7F8E83532E00123C7F8F43518E0D7F8F425D7F8F035134407F5CA72D15C634AD7F8E835DB0084
:403940001A44D7F8F435134403F5D8730A465A71D7F8F4350133C7F8F435D7F8F435062BE2D9594AD7F8E8353633DB00134406225A71D7F8F0350733C7F8F035D7F8E83529
:403980000133C7F8E835D7F8E835032BC8D94F4B012283F8942217F029FE3B1D31229A710623C7F8F835DBE2D7F8F0350233C7F8F0350023C7F8F4352BE00023C7F8EC3572
:4039C00019E007F5CA72D7F8F035134418784049D7F8F435DA00D7F8EC3513440B4402461A70D7F8F0350133C7F8F035D7F8EC350133C7F8EC35D7F8EC35072BE1D9D7F83D
:403A0000F0350133C7F8F035D7F8F4350133C7F8F435D7F8F435712BCFD917F0E3FE18F0A9FA3B1D31229A710623C7F8F83597E2D7F8F0350233C7F8F03507F5CA72D7F80E
:403A4000F03513441B78312B03D1224B01221A7002E0204B00221A703B1D31229A710623C7F8F8357CE2D7F8F0350233C7F8F03507F5CA72D7F8F03513441A78134B83F8D0
:403A80007D20124B93F87D30562B04D10F4B012283F87C2003E00D4B022283F87C20D7F8F0350933C7F8F035D7F8F035C7F8EC35044B1B78DBB2C7F8F43531E0E48AFF1F98
:403AC000FC86FF1F068BFF1FF884FF1F4082FF1F0C87FF1FDA8AFF1F07F5CA72D7F8EC3513441978D64AD7F8F435134478330A469A7107F5CA72D7F8EC3513441978D04A1B
:403B0000D7F8F435134482330A469A71D7F8EC35013BC7F8EC35D7F8F435013BC7F8F435D7F8F435002BD7D1C64B1B78DAB2C44B83F87E20C34B1B78DAB2C14B83F888207F
:403B4000D7F8F0350233C7F8F03507F5CA72D7F8F03513441B7803F00703DAB2B84B83F89220D7F8F0350133C7F8F0350123C7F8F43514E0D7F8F425D7F8F035134407F52E
:403B8000CA72D15CAE4AD7F8F435134403F5BC730A469A71D7F8F4350133C7F8F435D7F8F435062BE6D9A64B062283F87E2118F015FE18F0CBFFA24B312283F87B20A04B76
:403BC000342283F87A209E4B002283F879209C4B002283F804219A4B002283F80F21984B002283F81A21964B00221A70944B00225A7002202B2110F047FC0220552110F084
:403C0000FDFC8F4B2B2283F894208F4B1C221A603B1D31229A710623C7F8F835A0E1D7F8F0350233C7F8F03507F5CA72D7F8F03513441B78312B1BD1814B382283F8942097
:403C40000220412110F020FC02204B2110F0D6FC7E4818F0B1FD18F069FF7D494FF000024FF00003C1E90023774B2C221A6006E0734B162283F89420734B01221A603B1DFA
:403C800031229A710623C7F8F83569E13B1D31229A710623C7F8F83562E1D7F8F0350233C7F8F03507F5CA72D7F8F03513441A78684B1A70D7F8F0350133C7F8F035664B1D
:403CC00014221A700123C7F8F43512E0D7F8F425D7F8F035134407F5CA72D15C5E4AD7F8F43513440A461A70D7F8F4350133C7F8F435D7F8F435142BE8D9D7F8F035153355
:403D0000C7F8F035554B04221A700123C7F8F43512E0D7F8F425D7F8F035134407F5CA72D15C4E4AD7F8F43513440A461A70D7F8F4350133C7F8F435D7F8F435042BE8D9FC
:403D400017F006FA3B1D31229A710623C7F8F83506E1D7F8F0350233C7F8F03507F5CA72D7F8F03513441B78312B03D13C4B01221A7002E03A4B00221A703B1D31229A713A
:403D80000623C7F8F835EBE02D4B93F89430193B282B00F2D98001A252F823F0653E00007B3E0000493F0000493F0000493F0000493F0000493F0000493F0000913E00000F
:403DC000493F0000493F0000A73E0000493F0000BD3E0000493F0000493F0000D33E0000493F0000493F0000493F0000493F0000493F0000493F0000493F0000E93E00004B
:403E0000493F0000FF3E0000493F00001D3F0000493F0000493F0000493F0000493F0000493F0000493F0000493F0000493F0000493F0000493F0000493F0000333F00008F
:403E40004082FF1F068BFF1F008EFF1F81430100188BFF1F278EFF1FD884FF1FDC8AFF1F048EFF1FB94B012283F827213B1D31229A710623C7F8F83571E0B44B162283F848
:403E800094203B1D31229A710623C7F8F83566E0AE4B222283F894203B1D31229A710623C7F8F8355BE0A94B252283F894203B1D31229A710623C7F8F83550E0A34B27222F
:403EC00083F894203B1D31229A710623C7F8F83545E09E4B2A2283F894203B1D31229A710623C7F8F8353AE0984B322283F894203B1D31229A710623C7F8F8352FE0934B3C
:403F0000002283F89320914B162283F894203B1D31229A710623C7F8F83520E08B4B362283F894203B1D31229A710623C7F8F83515E0864B422283F894203B1D31229A71EC
:403F40000623C7F8F8350AE0804B162283F894203B1D31229A710623C7F8F83500BF00BF7B4B93F800213B1DDA7018F003F80323C7F8F4350CE03A1DD7F8F43513441B787D
:403F8000184619F0E3F9D7F8F4350133C7F8F435D7F8F425D7F8F8359A42ECD93B2019F0D5F9262019F0D2F91CE0694B93F800213B1DDA703B1D30229A710323C7F8F43518
:403FC0000CE03A1DD7F8F43513441B78184619F0BDF9D7F8F4350133C7F8F435D7F8F435082BEED931E03B1D30229A710023C7F8F4350CE03A1DD7F8F43513441B78184625
:4040000019F0A4F9D7F8F4350133C7F8F435D7F8F435082BEED94E4B93F800213B1DDA700323C7F8F4350CE03A1DD7F8F43513441B78184619F08AF9D7F8F4350133C7F8E5
:40404000F435D7F8F435082BEED92A2019F07EF9404B93F89432012B27D10023C7F8F43515E03B4B1878D7F8F435DBB20133D9B2D7F8F4351633DB00354A134405331A4677
:4040800015F02EFAD7F8F4350133C7F8F435324B1B78DBB21A46D7F8F4359A42E1D82D4B002283F8942217F065FF284B93F89432012B28D10023C7F8F43516E0244B93F81B
:4040C0000001D7F8F435DBB20133D9B2D7F8F4353633DB001E4A134405331A4615F000FAD7F8F4350133C7F8F4351B4B1B78DBB21A46D7F8F4359A42E0D8144B002283F867
:40410000942217F037FF154B1B78DBB2012B16D1134B03221A60134B03221A600120372110F0B2F90120572110F068FA0220372110F0AAF90220572110F060FAFEE7322098
:4041400017F09EFE07F20467BD4690BD4082FF1FF884FF1F308BFF1F038BFF1FDA8AFF1FC88DFF1F008EFF1F80B5E8B000AF0023A7F89E31DF4BD3E90023002B08BF332AE3
:40418000C4F0B3823B1D42221A703B1D47225A703B1D45229A70D84B1A783B1DDA70D74B93F89430193B282B02F21A8101A252F823F000BF5942000041450000E16300005A
:4041C000E1630000E1630000E1630000E1630000E16300000D500000E1630000E1630000F3500000E1630000AF520000E1630000E1630000E1630000E1630000E1630000AA
:40420000E1630000E1630000E1630000E1630000E16300000F540000E16300000B550000E1630000A5590000E16300002B5A0000E1630000E1630000E1630000E163000008
:40424000E1630000E1630000E1630000E1630000E16300007D5A0000A84B93F82731002B40F060813B1D6D221A713B1D3B225A71A24B93F87D203B1D9A713B1D3B22DA7197
:404280009E4B93F88830C7F894310823A7F89C3129E0B7F89C3107339849D7F894210A44823291793A1DD154D7F89431013BC7F89431D7F89431002B10DC0AE0B7F89C31A6
:4042C000013BA7F89C31B7F89C3107333A1D3021D154B7F89C31012BF0D808E0B7F89C31013BA7F89C31B7F89C31002BD1D13B1D3B221A74814B93F892303033DAB23B1D2B
:404300005A743B1D3B229A747C4B93F8BE30C7F894310023A7F89A310D23A7F89C3141E0B7F89C3112337549D7F894210A44B83291793A1DD154D7F89431013BC7F89431C9
:40434000B7F89A310133A7F89A31B7F89A216C4B1B78DBB2013B9A420AD1B7F89C31013BA7F89C31B7F89C3112333A1D2C21D154D7F89431002B10DC0AE0B7F89C31013BF6
:40438000A7F89C31B7F89C3112333A1D3021D154B7F89C31012BF0D808E0B7F89C31013BA7F89C31B7F89C31002BB9D13B1D3B2283F82020514B93F8B030C7F89431002338
:4043C000A7F89A310D23A7F89C3141E0B7F89C3120334A49D7F894210A44B03211783A1DD154D7F89431013BC7F89431B7F89A310133A7F89A31434B1B78DBB29BB2B7F865
:404400009A219A420AD1B7F89C31013BA7F89C31B7F89C3120333A1D2C21D154D7F89431002B10DC0AE0B7F89C31013BA7F89C31B7F89C3120333A1D3021D154B7F89C317D
:40444000012BF0D808E0B7F89C31013BA7F89C31B7F89C31002BB9D13B1D3B2283F82E20264B93F8CC30C7F894310023A7F89A310623A7F89C314CE0B7F89C312E331F497E
:40448000D7F894210A44C83211793A1DD154D7F89431013BC7F89431B7F89A310133A7F89A31184B1B78DBB29BB2B7F89A219A420AD1B7F89C31013BA7F89C31B7F89C312D
:4044C0002E333A1D2C21D154D7F89431002B1BDC0AE0B7F89C31013BA7F89C31B7F89C312E333A1D3021D154B7F89C31012BF0D813E000BF208BFF1FF884FF1F308BFF1FC6
:40450000F986FF1F268EFF1FB7F89C31013BA7F89C31B7F89C31002BAED13423A7F89E3101F06DBF3B1D61221A713B1D3B225A713B1D19229A710623A7F89E3101F05FBFB6
:404540003B1D62221A713B1D3B225A71C74B93F87A203B1D9A713B1D3B22DA71C34B93F87D203B1D1A723B1D3B225A72BF4B93F88830C7F894310823A7F89C3129E0B7F8FF
:404580009C310933B949D7F894210A44823291793A1DD154D7F89431013BC7F89431D7F89431002B10DC0AE0B7F89C31013BA7F89C31B7F89C3109333A1D3021D154B7F8A3
:4045C0009C31012BF0D808E0B7F89C31013BA7F89C31B7F89C31002BD1D13B1D3B229A74A24B93F892303033DAB23B1DDA743B1D3B221A753B1D32225A753B1D30229A759B
:404600000023A7F89C311AE0B7F89C311733B7F89C2196490A4492F898103A1DD154B7F89C311D33B7F89C2190490A4492F8A4103A1DD154B7F89C310133A7F89C31B7F800
:404640009C31052BE0D93B1D3B2283F82320874B93F8BE30C7F894310023A7F89A310D23A7F89C3141E0B7F89C3123337F49D7F894210A44B83291793A1DD154D7F8943188
:40468000013BC7F89431B7F89A310133A7F89A31B7F89A21764B1B78DBB2013B9A420AD1B7F89C31013BA7F89C31B7F89C3123333A1D2C21D154D7F89431002B10DC0AE090
:4046C000B7F89C31013BA7F89C31B7F89C3123333A1D3021D154B7F89C31012BF0D808E0B7F89C31013BA7F89C31B7F89C31002BB9D13B1D3B2283F831205C4B93F8B030B7
:40470000C7F894310023A7F89A310D23A7F89C3141E0B7F89C3131335449D7F894210A44B03211783A1DD154D7F89431013BC7F89431B7F89A310133A7F89A314D4B1B78DE
:40474000DBB29BB2B7F89A219A420AD1B7F89C31013BA7F89C31B7F89C3131333A1D2C21D154D7F89431002B10DC0AE0B7F89C31013BA7F89C31B7F89C3131333A1D302130
:40478000D154B7F89C31012BF0D808E0B7F89C31013BA7F89C31B7F89C31002BB9D13B1D3B2283F83F20314B93F8CC30C7F894310023A7F89A310623A7F89C3141E0B7F81F
:4047C0009C313F332949D7F894210A44C83211793A1DD154D7F89431013BC7F89431B7F89A310133A7F89A31224B1B78DBB29BB2B7F89A219A420AD1B7F89C31013BA7F878
:404800009C31B7F89C313F333A1D2C21D154D7F89431002B10DC0AE0B7F89C31013BA7F89C31B7F89C313F333A1D3021D154B7F89C31012BF0D808E0B7F89C31013BA7F8D1
:404840009C31B7F89C31002BB9D13B1D3B2283F84620094B93F8E330C7F894310023A7F89A310823A7F89C314AE000BF308BFF1FF986FF1F268EFF1FF884FF1FB7F89C31C3
:404880004633DA49D7F894210A44E032D1783A1DD154D7F89431013BC7F89431B7F89A310133A7F89A31D24B1B78DBB29BB2B7F89A219A420AD1B7F89C31013BA7F89C3178
:4048C000B7F89C3146333A1D2C21D154D7F89431002B10DC0AE0B7F89C31013BA7F89C31B7F89C3146333A1D3021D154B7F89C31012BF0D808E0B7F89C31013BA7F89C3103
:40490000B7F89C31002BB9D13B1D3B2283F84F20B64B93F8D530C7F894310023A7F89A310823A7F89C3141E0B7F89C314F33AF49D7F894210A44D03251793A1DD154D7F86E
:404940009431013BC7F89431B7F89A310133A7F89A31A84B1B78DBB29BB2B7F89A219A420AD1B7F89C31013BA7F89C31B7F89C314F333A1D2C21D154D7F89431002B10DC83
:404980000AE0B7F89C31013BA7F89C31B7F89C314F333A1D3021D154B7F89C31012BF0D808E0B7F89C31013BA7F89C31B7F89C31002BB9D13B1D3B2283F858208B4B93F868
:4049C000F130C7F894310023A7F89A310623A7F89C3141E0B7F89C3158338449D7F894210A44F03251783A1DD154D7F89431013BC7F89431B7F89A310133A7F89A317D4B8E
:404A00001B78DBB29BB2B7F89A219A420AD1B7F89C31013BA7F89C31B7F89C3158333A1D2C21D154D7F89431002B10DC0AE0B7F89C31013BA7F89C31B7F89C3158333A1DDD
:404A40003021D154B7F89C31012BF0D808E0B7F89C31013BA7F89C31B7F89C31002BB9D13B1D3B2283F85F20604B93F8FF203B1D83F860203B1D3B2283F861205E4B93F8D7
:404A80000431C7F89431D7F89431002B06D10123C7F89431584B202283F805210A23A7F89C312AE0B7F89C3161335349D7F894210A4402F5807211793A1DD154D7F89431D5
:404AC000013BC7F89431D7F89431002B10DC0AE0B7F89C31013BA7F89C31B7F89C3161333A1D2021D154B7F89C31012BF0D808E0B7F89C31013BA7F89C31B7F89C31002B4D
:404B0000D0D13B1D3B2283F86C203B4B93F80F31C7F89431D7F89431002B06D10123C7F89431354B302283F810210A23A7F89C312AE0B7F89C316C332F49D7F894210A447F
:404B400002F58472D1793A1DD154D7F89431013BC7F89431D7F89431002B10DC0AE0B7F89C31013BA7F89C31B7F89C316C333A1D3021D154B7F89C31012BF0D808E0B7F886
:404B80009C31013BA7F89C31B7F89C31002BD0D13B1D3B2283F87720174B93F81A31C7F89431D7F89431002B06D10123C7F89431114B302283F81B210A23A7F89C3132E067
:404BC000B7F89C3177330C49D7F894210A4402F58C7291783A1DD154D7F89431013BC7F89431D7F89431002B18DC12E0F884FF1FF986FF1F268EFF1F308BFF1FB7F89C3197
:404C0000013BA7F89C31B7F89C3177333A1D3021D154B7F89C31012BF0D808E0B7F89C31013BA7F89C31B7F89C31002BC8D13B1D3B2283F882203B1D322283F883203B1D29
:404C4000302283F884200023A7F89C311AE0B7F89C318533B7F89C21D8490A4492F89E103A1DD154B7F89C318B33B7F89C21D3490A4492F8AA103A1DD154B7F89C310133F7
:404C8000A7F89C31B7F89C31052BE0D93B1D3B2283F89120C94B93F8793003F00703DBB23033DAB23B1D83F892203B1D3B2283F89320C24B1B7803F00703DBB23033DAB200
:404CC0003B1D83F894203B1D3B2283F89520BB4B5B78C7F89431D7F89431002B05D10123C7F89431B54B20229A701423A7F89C3128E0B7F89C319533B049D7F894210A44A8
:404D000051783A1DD154D7F89431013BC7F89431D7F89431002B10DC0AE0B7F89C31013BA7F89C31B7F89C3195333A1D2021D154B7F89C31012BF0D808E0B7F89C31013B10
:404D4000A7F89C31B7F89C31002BD2D13B1D3B2283F8AA209A4B1B78DAB23B1D83F8AB203B1D3B2283F8AC20964B1B78DBB2C7F89431D7F89431002B05D10123C7F8943123
:404D8000904B20225A701423A7F89C3129E0B7F89C31AC338B49D7F894210A441278D1B23A1DD154D7F89431013BC7F89431D7F89431002B10DC0AE0B7F89C31013BA7F896
:404DC0009C31B7F89C31AC333A1D3021D154B7F89C31012BF0D808E0B7F89C31013BA7F89C31B7F89C31002BD1D13B1D3B2283F8C120724B93F8E830C7F894310023A7F842
:404E00009A310D23A7F89C3141E0B7F89C31C1336A49D7F894210A44E83211783A1DD154D7F89431013BC7F89431B7F89A310133A7F89A31B7F89A21634B1B78DBB2013BF6
:404E40009A420AD1B7F89C31013BA7F89C31B7F89C31C1333A1D2C21D154D7F89431002B10DC0AE0B7F89C31013BA7F89C31B7F89C31C1333A1D3021D154B7F89C31012B80
:404E8000F0D808E0B7F89C31013BA7F89C31B7F89C31002BB9D13B1D3B2283F8CF20474B93F8DA30C7F894310023A7F89A310D23A7F89C3141E0B7F89C31CF333F49D7F804
:404EC00094210A44D83291783A1DD154D7F89431013BC7F89431B7F89A310133A7F89A313A4B1B78DBB29BB2B7F89A219A420AD1B7F89C31013BA7F89C31B7F89C31CF33FF
:404F00003A1D2C21D154D7F89431002B10DC0AE0B7F89C31013BA7F89C31B7F89C31CF333A1D3021D154B7F89C31012BF0D808E0B7F89C31013BA7F89C31B7F89C31002B81
:404F4000B9D13B1D3B2283F8DD201C4B93F8F630C7F894310023A7F89A310623A7F89C314BE0B7F89C31DD331449D7F894210A44F03291793A1DD154D7F89431013BC7F89F
:404F80009431B7F89A310133A7F89A310F4B1B78DBB29BB2B7F89A219A420AD1B7F89C31013BA7F89C31B7F89C31DD333A1D2C21D154D7F89431002B1ADC14E0308BFF1F31
:404FC000278EFF1FD884FF1FF986FF1F268EFF1FB7F89C31013BA7F89C31B7F89C31DD333A1D3021D154B7F89C31012BF0D808E0B7F89C31013BA7F89C31B7F89C31002B55
:40500000AFD1E323A7F89E3101F0F9B93B1D64221A713B1D3B225A71D54B93F83530C7F894310823A7F89C3129E0B7F89C310533CF49D7F894210A44303251793A1DD15476
:40504000D7F89431013BC7F89431D7F89431002B10DC0AE0B7F89C31013BA7F89C31B7F89C3105333A1D3021D154B7F89C31012BF0D808E0B7F89C31013BA7F89C31B7F877
:405080009C31002BD1D13B1D3B229A73B84B93F83330B84AA2FB0323DB08DBB23033DAB23B1DDA73B24B93F83320B24BA3FB0213D9080B469B000B445B00D31ADBB23033FB
:4050C000DAB23B1D1A743B1D3B225A74A84B93F83430012B03D13B1D33229A7404E0A44B93F87B203B1D9A741223A7F89E3101F086B93B1D65221A713B1D3B225A719C4B1B
:4051000093F83530C7F894310823A7F89C3129E0B7F89C3105339649D7F894210A44303251793A1DD154D7F89431013BC7F89431D7F89431002B10DC0AE0B7F89C31013BAD
:40514000A7F89C31B7F89C3105333A1D3021D154B7F89C31012BF0D808E0B7F89C31013BA7F89C31B7F89C31002BD1D13B1D3B229A737F4B93F833307E4AA2FB0323DB0895
:40518000DBB23033DAB23B1DDA73794B93F83320784BA3FB0213D9080B469B000B445B00D31ADBB23033DAB23B1D1A743B1D3B225A746F4B93F87B203B1D9A743B1D3B2272
:4051C000DA746B4B93F83F30C7F894310823A7F89C3129E0B7F89C3113336549D7F894210A443832D1793A1DD154D7F89431013BC7F89431D7F89431002B10DC0AE0B7F883
:405200009C31013BA7F89C31B7F89C3113333A1D3021D154B7F89C31012BF0D808E0B7F89C31013BA7F89C31B7F89C31002BD1D13B1D3B221A774E4B93F84930C7F894313E
:405240001423A7F89C3129E0B7F89C311C334849D7F894210A44483251783A1DD154D7F89431013BC7F89431D7F89431002B10DC0AE0B7F89C31013BA7F89C31B7F89C310C
:405280001C333A1D2021D154B7F89C31012BF0D808E0B7F89C31013BA7F89C31B7F89C31002BD1D13023A7F89E3101F0A8B83B1D66221A713B1D3B225A712D4B93F80F31DD
:4052C000C7F894312A4B93F80F31C7F89431D7F89431002B06D10123C7F89431244B302283F810210A23A7F89C312AE0B7F89C3105331F49D7F894210A4402F58472D179F3
:405300003A1DD154D7F89431013BC7F89431D7F89431002B10DC0AE0B7F89C31013BA7F89C31B7F89C3105333A1D3021D154B7F89C31012BF0D808E0B7F89C31013BA7F8B4
:405340009C31B7F89C31002BD0D13B1D3B221A74074B1A783B1D5A743B1D3B229A74044B5B78C7F894311423A7F89C312DE000BF308BFF1FCDCCCCCCB7F89C311233D84907
:40538000D7F894210A4451783A1DD154D7F89431013BC7F89431D7F89431002B10DC0AE0B7F89C31013BA7F89C31B7F89C3112333A1D2021D154B7F89C31012BF0D808E0F3
:4053C000B7F89C31013BA7F89C31B7F89C31002BD2D13B1D3B2283F82720C14B93F87B203B1D83F828203B1D3B2283F82920BC4B93F8923003F00703DBB23033DAB23B1DDD
:4054000083F82A202A23A7F89E3100F0F8BF3B1D67221A713B1D3B225A71B14B93F882321A46AF4913469B0013449A0013440B4403F5C4731B78C7F89431A94B93F88232C2
:405440001A46A74913469B0013449A0013440B4403F5C4731B78C7F89431D7F89431002B11D10123C7F894319D4B93F882321A469B4913469B0013449A0013440B4403F2D7
:40548000891330221A701423A7F89C3134E0B7F89C315A1D924B93F88232194690480B469B000B4499000B44C118D7F894310B4403F5C47319783B1D9954D7F89431013BC3
:4054C000C7F89431D7F89431002B10DC0AE0B7F89C31013BA7F89C31B7F89C3105333A1D2021D154B7F89C31012BF0D808E0B7F89C31013BA7F89C31B7F89C31002BC6D144
:405500001923A7F89E3100F07ABF3B1D68221A713B1D3B225A71724B93F87A203B1D9A710023A7F89A3128E1B7F89A2113461B0113445B0007333A1D3B21D154B7F89A21C3
:40554000674913469B0013449A0013440B4403F5C4731B78C7F894311423A7F89C3140E0B7F89C31D91DB7F89A2113461B0113445B001944B7F89A21594813469B00134431
:405580009A001344C218D7F89431134403F5C4731A783B1D5A54D7F89431013BC7F89431D7F89431002B17DC11E0B7F89C31013BA7F89C31B7F89C31D91DB7F89A2113461E
:4055C0001B0113445B000B443A1D2021D154B7F89C31012BE9D808E0B7F89C31013BA7F89C31B7F89C31002BBAD1B7F89A2113461B0113445B001C333A1D3B21D154B7F8C3
:405600009A21374913469B0013440B4403F506739B79C7F894310323A7F89C3140E0B7F89C3103F11C01B7F89A2113461B0113445B001944B7F89A21294813469B00134439
:40564000C218D7F89431134403F506739A793B1D5A54D7F89431013BC7F89431D7F89431002B18DC12E0B7F89C31013BA7F89C31B7F89C3103F11C01B7F89A2113461B0152
:4056800013445B000B443A1D3021D154B7F89C31012BE8D808E0B7F89C31013BA7F89C31B7F89C31002BBAD1B7F89A2113461B0113445B0020333A1D3B21D154B7F89A2150
:4056C000074913469B0013445B000B4403F50E731B79C7F894310823A7F89C3144E000BF308BFF1FB7F89C3103F12001B7F89A2113461B0113445B001944B7F89A21DC4874
:4057000013469B0013445B00C218D7F89431134403F50E731A793B1D5A54D7F89431013BC7F89431D7F89431002B18DC12E0B7F89C31013BA7F89C31B7F89C3103F120013E
:40574000B7F89A2113461B0113445B000B443A1D3021D154B7F89C31012BE8D808E0B7F89C31013BA7F89C31B7F89C31002BB9D1B7F89A310133A7F89A31B7F89A31022B18
:405780007FF6D2AE3B1D3B2283F86D20B84B93F87832C7F894310923A7F89C312AE0B7F89C316D33B249D7F894210A4402F51E7211783A1DD154D7F89431013BC7F8943110
:4057C000D7F89431002B10DC0AE0B7F89C31013BA7F89C31B7F89C316D333A1D3021D154B7F89C31012BF0D808E0B7F89C31013BA7F89C31B7F89C31002BD0D13B1D3B228E
:4058000083F877203B1D322283F878203B1D302283F879200023A7F89C311AE0B7F89C317A33B7F89C2192490A4492F89E103A1DD154B7F89C318033B7F89C218C490A4420
:4058400092F8AA103A1DD154B7F89C310133A7F89C31B7F89C31052BE0D93B1D3B2283F88620834B1B7803F00703DBB23033DAB23B1D83F887203B1D3B2283F888207C4B1E
:405880005B78C7F89431D7F89431002B05D10123C7F89431764B20229A701423A7F89C3128E0B7F89C3188337149D7F894210A4451783A1DD154D7F89431013BC7F8943140
:4058C000D7F89431002B10DC0AE0B7F89C31013BA7F89C31B7F89C3188333A1D2021D154B7F89C31012BF0D808E0B7F89C31013BA7F89C31B7F89C31002BD2D13B1D3B2280
:4059000083F89D205B4B1B78DAB23B1D83F89E203B1D3B2283F89F20574B1B78DBB2C7F89431D7F89431002B05D10123C7F89431514B20225A701423A7F89C3129E0B7F864
:405940009C319F334C49D7F894210A441278D1B23A1DD154D7F89431013BC7F89431D7F89431002B10DC0AE0B7F89C31013BA7F89C31B7F89C319F333A1D3021D154B7F8C1
:405980009C31012BF0D808E0B7F89C31013BA7F89C31B7F89C31002BD1D1B323A7F89E3100F02DBD3B1D69221A713B1D3B225A712F4B93F88332C7F894310A23A7F89C31EE
:4059C0002AE0B7F89C3105332949D7F894210A4402F52072D1783A1DD154D7F89431013BC7F89431D7F89431002B10DC0AE0B7F89C31013BA7F89C31B7F89C3105333A1D3F
:405A00003021D154B7F89C31012BF0D808E0B7F89C31013BA7F89C31B7F89C31002BD0D10F23A7F89E3100F0EABC3B1D6A221A713B1D3B225A710E4B93F8923203F0010368
:405A4000DBB23033DAB23B1D9A713B1D3B22DA71074B93F8933203F00103DBB23033DAB23B1D1A720823A7F89E3100F0C8BC00BF308BFF1F278EFF1FD884FF1F3B1D6B2277
:405A80001A713B1D3B225A71D84B1B78DBB203F00103002B01D1312200E030223B1D9A713B1D3B22DA71D24B1B78DAB23B1D1A723B1D3B225A72CF4B1B78DBB2C7F894315D
:405AC000D7F89431002B05D10123C7F89431C94B30225A701423A7F89C3129E0B7F89C310933C449D7F894210A441278D1B23A1DD154D7F89431013BC7F89431D7F8943185
:405B0000002B10DC0AE0B7F89C31013BA7F89C31B7F89C3109333A1D3021D154B7F89C31012BF0D808E0B7F89C31013BA7F89C31B7F89C31002BD1D13B1D3B229A77AE4B37
:405B40001B78DBB2C7F89431D7F89431002B05D10123C7F89431A84B30225A700423A7F89C3129E0B7F89C311E33A349D7F894210A441278D1B23A1DD154D7F89431013BB5
:405B8000C7F89431D7F89431002B10DC0AE0B7F89C31013BA7F89C31B7F89C311E333A1D3021D154B7F89C31012BF0D808E0B7F89C31013BA7F89C31B7F89C31002BD1D149
:405BC0000023A7F89831E1E1B7F898315A1C13469B001344DA00D31A3A1D3B21D154B7F89821864913465B0013441A01D21A8B185B78C7F89431D7F89431002B0ED101237B
:405C0000C7F89431B7F898217C4913465B0013441A01D21A8B18013330225A700023A7F89A310D23A7F89C3163E0B7F89C3103F12301B7F8982113469B001344DA00D31A34
:405C40001944B7F898216D4813465B0013441A01D21AD7F89431134403445A783B1D5A54D7F89431013BC7F89431B7F89A310133A7F89A31B7F89A21614B1B78DBB2013BB0
:405C80009A4213D1B7F89C31013BA7F89C31B7F89C3103F12301B7F8982113469B001344DA00D31A0B443A1D2C21D154D7F89431002B19DC13E0B7F89C31013BA7F89C310F
:405CC000B7F89C3103F12301B7F8982113469B001344DA00D31A0B443A1D3021D154B7F89C31012BE7D808E0B7F89C31013BA7F89C31B7F89C31002B97D1B7F89821134637
:405D00009B001344DA00D31A31333A1D3B21D154B7F89821394913465B0013441A01D21A8B180F335B78C7F89431D7F89431002B0ED10123C7F89431B7F898212F491346B7
:405D40005B0013441A01D21A8B18103330225A700023A7F89A310D23A7F89C3172E0B7F89C3103F13101B7F8982113469B001344DA00D31A1944B7F89821204813465B00F0
:405D800013441A01D21A0244D7F8943113440F335A783B1D5A54D7F89431013BC7F89431B7F89A310133A7F89A31164B1B78DBB29BB2B7F89A219A4213D1B7F89C31013B1E
:405DC000A7F89C31B7F89C3103F13101B7F8982113469B001344DA00D31A0B443A1D2C21D154D7F89431002B27DC21E00887FF1F278EFF1FD884FF1FDC8AFF1FF884FF1F28
:405E0000F986FF1F268EFF1FB7F89C31013BA7F89C31B7F89C3103F13101B7F8982113469B001344DA00D31A0B443A1D3021D154B7F89C31012BE7D808E0B7F89C31013B90
:405E4000A7F89C31B7F89C31002B88D1B7F8982113469B001344DA00D31A3F333A1D3B21D154B7F89821DB4913465B0013441A01D21A8B181E335B78C7F89431D7F8943175
:405E8000002B0ED10123C7F89431B7F89821D14913465B0013441A01D21A8B181F3330225A700023A7F89A310623A7F89C3164E0B7F89C3103F13F01B7F8982113469B0019
:405EC0001344DA00D31A1944B7F89821C14813465B0013441A01D21A0244D7F8943113441E335A783B1D5A54D7F89431013BC7F89431B7F89A310133A7F89A31B64B1B784A
:405F0000DBB29BB2B7F89A219A4213D1B7F89C31013BA7F89C31B7F89C3103F13F01B7F8982113469B001344DA00D31A0B443A1D2C21D154D7F89431002B19DC13E0B7F8A1
:405F40009C31013BA7F89C31B7F89C3103F13F01B7F8982113469B001344DA00D31A0B443A1D3021D154B7F89C31012BE7D808E0B7F89C31013BA7F89C31B7F89C31002B4C
:405F800096D1B7F898310133A7F89831B7F89831032B7FF619AE0023A7F89831E5E1B7F8982113469B001344DA00D31AAF333A1D3B21D154B7F89821864913465B001344BD
:405FC0001A01D21A8B1803F580735B78C7F89431D7F89431002B0FD10123C7F89431B7F898217C4913465B0013441A01D21A8B1803F2011330225A700023A7F89A310D23AA
:40600000A7F89C3165E0B7F89C3103F1AF01B7F8982113469B001344DA00D31A1944B7F898216C4813465B0013441A01D21A0244D7F89431134403F580735A783B1D5A5496
:40604000D7F89431013BC7F89431B7F89A310133A7F89A31B7F89A21604B1B78DBB2013B9A4213D1B7F89C31013BA7F89C31B7F89C3103F1AF01B7F8982113469B0013448C
:40608000DA00D31A0B443A1D2C21D154D7F89431002B19DC13E0B7F89C31013BA7F89C31B7F89C3103F1AF01B7F8982113469B001344DA00D31A0B443A1D3021D154B7F8D1
:4060C0009C31012BE7D808E0B7F89C31013BA7F89C31B7F89C31002B95D1B7F8982113469B001344DA00D31ABD333A1D3B21D154B7F89821374913465B0013441A01D21A93
:406100008B1803F20F135B78C7F89431D7F89431002B0FD10123C7F89431B7F898212D4913465B0013441A01D21A8B1803F5887330225A700023A7F89A310D23A7F89C313C
:406140006CE0B7F89C3103F1BD01B7F8982113469B001344DA00D31A1944B7F898211D4813465B0013441A01D21A0244D7F89431134403F20F135A783B1D5A54D7F894313B
:40618000013BC7F89431B7F89A310133A7F89A31114B1B78DBB29BB2B7F89A219A4213D1B7F89C31013BA7F89C31B7F89C3103F1BD01B7F8982113469B001344DA00D31A48
:4061C0000B443A1D2C21D154D7F89431002B20DC1AE000BFF884FF1F268EFF1FF986FF1FB7F89C31013BA7F89C31B7F89C3103F1BD01B7F8982113469B001344DA00D31A3E
:406200000B443A1D3021D154B7F89C31012BE7D808E0B7F89C31013BA7F89C31B7F89C31002B8ED1B7F8982113469B001344DA00D31ACB333A1D3B21D154B7F89821E049E8
:4062400013465B0013441A01D21A8B1803F58F735B78C7F89431D7F89431002B0FD10123C7F89431B7F89821D54913465B0013441A01D21A8B1803F21F1330225A70002330
:40628000A7F89A310623A7F89C3165E0B7F89C3103F1CB01B7F8982113469B001344DA00D31A1944B7F89821C54813465B0013441A01D21A0244D7F89431134403F58F73D5
:4062C0005A783B1D5A54D7F89431013BC7F89431B7F89A310133A7F89A31BA4B1B78DBB29BB2B7F89A219A4213D1B7F89C31013BA7F89C31B7F89C3103F1CB01B7F89821F6
:4063000013469B001344DA00D31A0B443A1D2C21D154D7F89431002B19DC13E0B7F89C31013BA7F89C31B7F89C3103F1CB01B7F8982113469B001344DA00D31A0B443A1D0C
:406340003021D154B7F89C31012BE7D808E0B7F89C31013BA7F89C31B7F89C31002B95D1B7F898310133A7F89831B7F89831032B7FF615AE3B1D3B2283F83B213B1D3222FD
:4063800083F83C213B1D302283F83D210023A7F89C311CE0B7F89C3103F59F73B7F89C2189490A4492F89E103A1DD154B7F89C3103F5A273B7F89C2183490A4492F8AA10DE
:4063C0003A1DD154B7F89C310133A7F89C31B7F89C31052BDED940F24913A7F89E310EE03B1D61221A713B1D3B225A71764B93F894203B1D9A710623A7F89E3100BF0023F6
:40640000A7F89C310BE0B7F89C313A1DD35C184616F09CFFB7F89C310133A7F89C31B7F89C21B7F89E319A42EDD93B2016F08EFF262016F08BFF624B93F800213B1DDA709D
:40644000624B93F89430193B282B02F2198101A252F823F0F9640000DB6700008186000081860000818600008186000081860000818600009F720000818600008186000003
:406480009B730000818600005775000081860000818600008186000081860000818600008186000081860000818600008186000081860000B776000081860000B377000057
:4064C000818600004B7C000081860000D17C0000818600008186000081860000818600008186000081860000818600008186000081860000157D0000344B93F82731002B1C
:4065000040F05D813B1D6D221A713B1D3B225A712E4B93F87D203B1D9A713B1D3B22DA712A4B93F88830C7F894310823A7F89C3129E0B7F89C3107332449D7F894210A4486
:40654000823291793A1DD154D7F89431013BC7F89431D7F89431002B10DC0AE0B7F89C31013BA7F89C31B7F89C3107333A1D3021D154B7F89C31012BF0D808E0B7F89C317D
:40658000013BA7F89C31B7F89C31002BD1D13B1D3B221A740D4B93F892303033DAB23B1D5A743B1D3B229A74084B93F8BE30C7F894310023A7F89A310D23A7F89C3149E088
:4065C000F884FF1F268EFF1F308BFF1F4082FF1FB7F89C311233CA49D7F894210A44B83291793A1DD154D7F89431013BC7F89431B7F89A310133A7F89A31B7F89A21C14B7E
:406600001B78DBB2013B9A420AD1B7F89C31013BA7F89C31B7F89C3112333A1D2C21D154D7F89431002B10DC0AE0B7F89C31013BA7F89C31B7F89C3112333A1D3021D15452
:40664000B7F89C31012BF0D808E0B7F89C31013BA7F89C31B7F89C31002BB9D13B1D3B2283F82020A64B93F8B030C7F894310023A7F89A310D23A7F89C3141E0B7F89C3157
:4066800020339F49D7F894210A44B03211783A1DD154D7F89431013BC7F89431B7F89A310133A7F89A31984B1B78DBB29BB2B7F89A219A420AD1B7F89C31013BA7F89C31E5
:4066C000B7F89C3120333A1D2C21D154D7F89431002B10DC0AE0B7F89C31013BA7F89C31B7F89C3120333A1D3021D154B7F89C31012BF0D808E0B7F89C31013BA7F89C3131
:40670000B7F89C31002BB9D13B1D3B2283F82E207B4B93F8CC30C7F894310023A7F89A310623A7F89C3141E0B7F89C312E337449D7F894210A44C83211793A1DD154D7F85B
:406740009431013BC7F89431B7F89A310133A7F89A316D4B1B78DBB29BB2B7F89A219A420AD1B7F89C31013BA7F89C31B7F89C312E333A1D2C21D154D7F89431002B10DCC1
:406780000AE0B7F89C31013BA7F89C31B7F89C312E333A1D3021D154B7F89C31012BF0D808E0B7F89C31013BA7F89C31B7F89C31002BB9D13423A7F89E3101F070BF3B1D37
:4067C00061221A713B1D3B225A713B1D19229A710623A7F89E3101F062BF3B1D62221A713B1D3B225A71464B93F87A203B1D9A713B1D3B22DA71424B93F87D203B1D1A722B
:406800003B1D3B225A723E4B93F88830C7F894310823A7F89C3129E0B7F89C3109333849D7F894210A44823291793A1DD154D7F89431013BC7F89431D7F89431002B10DCA3
:406840000AE0B7F89C31013BA7F89C31B7F89C3109333A1D3021D154B7F89C31012BF0D808E0B7F89C31013BA7F89C31B7F89C31002BD1D13B1D3B229A74214B93F8923044
:406880003033DAB23B1DDA743B1D3B221A753B1D32225A753B1D30229A750023A7F89C311AE0B7F89C311733B7F89C2114490A4492F898103A1DD154B7F89C311D33B7F83C
:4068C0009C210F490A4492F8A4103A1DD154B7F89C310133A7F89C31B7F89C31052BE0D93B1D3B2283F82320054B93F8BE30C7F894310023A7F89A310D23A7F89C3147E0EA
:406900004082FF1FF986FF1F268EFF1FB7F89C312333D649D7F894210A44B83291793A1DD154D7F89431013BC7F89431B7F89A310133A7F89A31B7F89A21CD4B1B78DBB2C7
:40694000013B9A420AD1B7F89C31013BA7F89C31B7F89C3123333A1D2C21D154D7F89431002B10DC0AE0B7F89C31013BA7F89C31B7F89C3123333A1D3021D154B7F89C3191
:40698000012BF0D808E0B7F89C31013BA7F89C31B7F89C31002BB9D13B1D3B2283F83120B24B93F8B030C7F894310023A7F89A310D23A7F89C3141E0B7F89C313133AB491B
:4069C000D7F894210A44B03211783A1DD154D7F89431013BC7F89431B7F89A310133A7F89A31A44B1B78DBB29BB2B7F89A219A420AD1B7F89C31013BA7F89C31B7F89C3155
:406A000031333A1D2C21D154D7F89431002B10DC0AE0B7F89C31013BA7F89C31B7F89C3131333A1D3021D154B7F89C31012BF0D808E0B7F89C31013BA7F89C31B7F89C31CB
:406A4000002BB9D13B1D3B2283F83F20874B93F8CC30C7F894310023A7F89A310623A7F89C3141E0B7F89C313F338049D7F894210A44C83211793A1DD154D7F89431013B59
:406A8000C7F89431B7F89A310133A7F89A31794B1B78DBB29BB2B7F89A219A420AD1B7F89C31013BA7F89C31B7F89C313F333A1D2C21D154D7F89431002B10DC0AE0B7F8C9
:406AC0009C31013BA7F89C31B7F89C313F333A1D3021D154B7F89C31012BF0D808E0B7F89C31013BA7F89C31B7F89C31002BB9D13B1D3B2283F846205F4B93F8E331C7F81B
:406B000094310023A7F89A310823A7F89C3142E0B7F89C3146335849D7F894210A4402F5F072D1783A1DD154D7F89431013BC7F89431B7F89A310133A7F89A314C4B1B782E
:406B4000DBB29BB2B7F89A219A420AD1B7F89C31013BA7F89C31B7F89C3146333A1D2C21D154D7F89431002B10DC0AE0B7F89C31013BA7F89C31B7F89C3146333A1D3021E2
:406B8000D154B7F89C31012BF0D808E0B7F89C31013BA7F89C31B7F89C31002BB8D13B1D3B2283F84F20344B93F8D531C7F894310023A7F89A310823A7F89C3142E0B7F8DC
:406BC0009C314F332C49D7F894210A4402F5E87251793A1DD154D7F89431013BC7F89431B7F89A310133A7F89A31224B1B78DBB29BB2B7F89A219A420AD1B7F89C31013B49
:406C0000A7F89C31B7F89C314F333A1D2C21D154D7F89431002B10DC0AE0B7F89C31013BA7F89C31B7F89C314F333A1D3021D154B7F89C31012BF0D808E0B7F89C31013B8D
:406C4000A7F89C31B7F89C31002BB8D13B1D3B2283F85820084B93F8F131C7F894310023A7F89A310623A7F89C314AE04082FF1FF986FF1F268EFF1FF884FF1FB7F89C319B
:406C80005833D449D7F894210A4402F5F87251783A1DD154D7F89431013BC7F89431B7F89A310133A7F89A31CB4B1B78DBB29BB2B7F89A219A420AD1B7F89C31013BA7F84D
:406CC0009C31B7F89C3158333A1D2C21D154D7F89431002B10DC0AE0B7F89C31013BA7F89C31B7F89C3158333A1D3021D154B7F89C31012BF0D808E0B7F89C31013BA7F8BB
:406D00009C31B7F89C31002BB8D13B1D3B2283F85F20B04B93F8FF213B1D83F860203B1D3B2283F86120AD4B93F80431C7F89431D7F89431002B06D10123C7F89431A74B91
:406D4000202283F805210A23A7F89C312AE0B7F89C316133A149D7F894210A4402F5807211793A1DD154D7F89431013BC7F89431D7F89431002B10DC0AE0B7F89C31013B31
:406D8000A7F89C31B7F89C3161333A1D2021D154B7F89C31012BF0D808E0B7F89C31013BA7F89C31B7F89C31002BD0D13B1D3B2283F86C20894B93F80F31C7F89431D7F828
:406DC0009431002B06D10123C7F89431834B302283F810210A23A7F89C312AE0B7F89C316C337E49D7F894210A4402F58472D1793A1DD154D7F89431013BC7F89431D7F82B
:406E00009431002B10DC0AE0B7F89C31013BA7F89C31B7F89C316C333A1D3021D154B7F89C31012BF0D808E0B7F89C31013BA7F89C31B7F89C31002BD0D13B1D3B2283F88C
:406E40007720664B93F81A31C7F89431D7F89431002B06D10123C7F89431604B302283F81B210A23A7F89C312AE0B7F89C3177335A49D7F894210A4402F58C7291783A1DEB
:406E8000D154D7F89431013BC7F89431D7F89431002B10DC0AE0B7F89C31013BA7F89C31B7F89C3177333A1D3021D154B7F89C31012BF0D808E0B7F89C31013BA7F89C3131
:406EC000B7F89C31002BD0D13B1D3B2283F882203B1D322283F883203B1D302283F884200023A7F89C311AE0B7F89C318533B7F89C213A490A4492F89E103A1DD154B7F888
:406F00009C318B33B7F89C2134490A4492F8AA103A1DD154B7F89C310133A7F89C31B7F89C31052BE0D93B1D3B2283F891202B4B93F8793003F00703DBB23033DAB23B1DF2
:406F400083F892203B1D3B2283F89320234B1B7803F00703DBB23033DAB23B1D83F894203B1D3B2283F895201C4B5B78C7F89431D7F89431002B05D10123C7F89431174BBE
:406F800020229A701423A7F89C312EE0B7F89C3195331249D7F894210A4451783A1DD154D7F89431013BC7F89431D7F89431002B16DC0AE0B7F89C31013BA7F89C31B7F85C
:406FC0009C3195333A1D2021D154B7F89C31012BF0D80EE0F884FF1F268EFF1F4082FF1FB7F89C31013BA7F89C31B7F89C31002BCCD13B1D3B2283F8AA20C34B1B78DAB206
:407000003B1D83F8AB203B1D3B2283F8AC20BF4B1B78DBB2C7F89431D7F89431002B05D10123C7F89431B94B20225A701423A7F89C3129E0B7F89C31AC33B449D7F8942133
:407040000A441278D1B23A1DD154D7F89431013BC7F89431D7F89431002B10DC0AE0B7F89C31013BA7F89C31B7F89C31AC333A1D3021D154B7F89C31012BF0D808E0B7F8FD
:407080009C31013BA7F89C31B7F89C31002BD1D13B1D3B2283F8C1209D4B93F8E830C7F894310023A7F89A310D23A7F89C3141E0B7F89C31C1339649D7F894210A44E8326D
:4070C00011783A1DD154D7F89431013BC7F89431B7F89A310133A7F89A31B7F89A218D4B1B78DBB2013B9A420AD1B7F89C31013BA7F89C31B7F89C31C1333A1D2C21D1546D
:40710000D7F89431002B10DC0AE0B7F89C31013BA7F89C31B7F89C31C1333A1D3021D154B7F89C31012BF0D808E0B7F89C31013BA7F89C31B7F89C31002BB9D13B1D3B22F7
:4071400083F8CF20724B93F8DA30C7F894310023A7F89A310D23A7F89C3141E0B7F89C31CF336B49D7F894210A44D83291783A1DD154D7F89431013BC7F89431B7F89A3124
:407180000133A7F89A31644B1B78DBB29BB2B7F89A219A420AD1B7F89C31013BA7F89C31B7F89C31CF333A1D2C21D154D7F89431002B10DC0AE0B7F89C31013BA7F89C31D0
:4071C000B7F89C31CF333A1D3021D154B7F89C31012BF0D808E0B7F89C31013BA7F89C31B7F89C31002BB9D13B1D3B2283F8DD20474B93F8F630C7F894310023A7F89A3116
:407200000623A7F89C3141E0B7F89C31DD334049D7F894210A44F03291793A1DD154D7F89431013BC7F89431B7F89A310133A7F89A31394B1B78DBB29BB2B7F89A219A4266
